{
    "_format": "hh-sol-artifact-1",
    "contractName": "TennisNFT",
    "sourceName": "contracts/TennisNFT.sol",
    "abi": [
        {
            "inputs": [],
            "stateMutability": "nonpayable",
            "type": "constructor"
        },
        {
            "anonymous": false,
            "inputs": [
                {
                    "indexed": true,
                    "internalType": "address",
                    "name": "account",
                    "type": "address"
                },
                {
                    "indexed": true,
                    "internalType": "address",
                    "name": "operator",
                    "type": "address"
                },
                {
                    "indexed": false,
                    "internalType": "bool",
                    "name": "approved",
                    "type": "bool"
                }
            ],
            "name": "ApprovalForAll",
            "type": "event"
        },
        {
            "anonymous": false,
            "inputs": [
                {
                    "indexed": true,
                    "internalType": "address",
                    "name": "previousOwner",
                    "type": "address"
                },
                {
                    "indexed": true,
                    "internalType": "address",
                    "name": "newOwner",
                    "type": "address"
                }
            ],
            "name": "OwnershipTransferred",
            "type": "event"
        },
        {
            "anonymous": false,
            "inputs": [
                {
                    "indexed": true,
                    "internalType": "address",
                    "name": "operator",
                    "type": "address"
                },
                {
                    "indexed": true,
                    "internalType": "address",
                    "name": "from",
                    "type": "address"
                },
                {
                    "indexed": true,
                    "internalType": "address",
                    "name": "to",
                    "type": "address"
                },
                {
                    "indexed": false,
                    "internalType": "uint256[]",
                    "name": "ids",
                    "type": "uint256[]"
                },
                {
                    "indexed": false,
                    "internalType": "uint256[]",
                    "name": "values",
                    "type": "uint256[]"
                }
            ],
            "name": "TransferBatch",
            "type": "event"
        },
        {
            "anonymous": false,
            "inputs": [
                {
                    "indexed": true,
                    "internalType": "address",
                    "name": "operator",
                    "type": "address"
                },
                {
                    "indexed": true,
                    "internalType": "address",
                    "name": "from",
                    "type": "address"
                },
                {
                    "indexed": true,
                    "internalType": "address",
                    "name": "to",
                    "type": "address"
                },
                {
                    "indexed": false,
                    "internalType": "uint256",
                    "name": "id",
                    "type": "uint256"
                },
                {
                    "indexed": false,
                    "internalType": "uint256",
                    "name": "value",
                    "type": "uint256"
                }
            ],
            "name": "TransferSingle",
            "type": "event"
        },
        {
            "anonymous": false,
            "inputs": [
                {
                    "indexed": false,
                    "internalType": "string",
                    "name": "value",
                    "type": "string"
                },
                {
                    "indexed": true,
                    "internalType": "uint256",
                    "name": "id",
                    "type": "uint256"
                }
            ],
            "name": "URI",
            "type": "event"
        },
        {
            "inputs": [],
            "name": "BRONZE",
            "outputs": [
                {
                    "internalType": "uint256",
                    "name": "",
                    "type": "uint256"
                }
            ],
            "stateMutability": "view",
            "type": "function"
        },
        {
            "inputs": [],
            "name": "GOLD",
            "outputs": [
                {
                    "internalType": "uint256",
                    "name": "",
                    "type": "uint256"
                }
            ],
            "stateMutability": "view",
            "type": "function"
        },
        {
            "inputs": [],
            "name": "SILVER",
            "outputs": [
                {
                    "internalType": "uint256",
                    "name": "",
                    "type": "uint256"
                }
            ],
            "stateMutability": "view",
            "type": "function"
        },
        {
            "inputs": [],
            "name": "WHITE",
            "outputs": [
                {
                    "internalType": "uint256",
                    "name": "",
                    "type": "uint256"
                }
            ],
            "stateMutability": "view",
            "type": "function"
        },
        {
            "inputs": [],
            "name": "admin",
            "outputs": [
                {
                    "internalType": "address",
                    "name": "",
                    "type": "address"
                }
            ],
            "stateMutability": "view",
            "type": "function"
        },
        {
            "inputs": [
                {
                    "internalType": "address",
                    "name": "account",
                    "type": "address"
                },
                {
                    "internalType": "uint256",
                    "name": "id",
                    "type": "uint256"
                }
            ],
            "name": "balanceOf",
            "outputs": [
                {
                    "internalType": "uint256",
                    "name": "",
                    "type": "uint256"
                }
            ],
            "stateMutability": "view",
            "type": "function"
        },
        {
            "inputs": [
                {
                    "internalType": "address[]",
                    "name": "accounts",
                    "type": "address[]"
                },
                {
                    "internalType": "uint256[]",
                    "name": "ids",
                    "type": "uint256[]"
                }
            ],
            "name": "balanceOfBatch",
            "outputs": [
                {
                    "internalType": "uint256[]",
                    "name": "",
                    "type": "uint256[]"
                }
            ],
            "stateMutability": "view",
            "type": "function"
        },
        {
            "inputs": [],
            "name": "bronzeIdInitialCount",
            "outputs": [
                {
                    "internalType": "uint256",
                    "name": "",
                    "type": "uint256"
                }
            ],
            "stateMutability": "view",
            "type": "function"
        },
        {
            "inputs": [
                {
                    "internalType": "address",
                    "name": "account",
                    "type": "address"
                },
                {
                    "internalType": "uint256",
                    "name": "id",
                    "type": "uint256"
                },
                {
                    "internalType": "uint256",
                    "name": "amount",
                    "type": "uint256"
                }
            ],
            "name": "burn",
            "outputs": [],
            "stateMutability": "nonpayable",
            "type": "function"
        },
        {
            "inputs": [
                {
                    "internalType": "address",
                    "name": "account",
                    "type": "address"
                },
                {
                    "internalType": "uint256",
                    "name": "id",
                    "type": "uint256"
                }
            ],
            "name": "checkBalanceOf",
            "outputs": [
                {
                    "internalType": "uint256",
                    "name": "",
                    "type": "uint256"
                }
            ],
            "stateMutability": "view",
            "type": "function"
        },
        {
            "inputs": [],
            "name": "goldIdInitialCount",
            "outputs": [
                {
                    "internalType": "uint256",
                    "name": "",
                    "type": "uint256"
                }
            ],
            "stateMutability": "view",
            "type": "function"
        },
        {
            "inputs": [
                {
                    "internalType": "address",
                    "name": "account",
                    "type": "address"
                },
                {
                    "internalType": "address",
                    "name": "operator",
                    "type": "address"
                }
            ],
            "name": "isApprovedForAll",
            "outputs": [
                {
                    "internalType": "bool",
                    "name": "",
                    "type": "bool"
                }
            ],
            "stateMutability": "view",
            "type": "function"
        },
        {
            "inputs": [
                {
                    "internalType": "address",
                    "name": "account",
                    "type": "address"
                },
                {
                    "internalType": "uint256",
                    "name": "id",
                    "type": "uint256"
                },
                {
                    "internalType": "uint256",
                    "name": "amount",
                    "type": "uint256"
                }
            ],
            "name": "mint",
            "outputs": [],
            "stateMutability": "nonpayable",
            "type": "function"
        },
        {
            "inputs": [],
            "name": "owner",
            "outputs": [
                {
                    "internalType": "address",
                    "name": "",
                    "type": "address"
                }
            ],
            "stateMutability": "view",
            "type": "function"
        },
        {
            "inputs": [],
            "name": "renounceOwnership",
            "outputs": [],
            "stateMutability": "nonpayable",
            "type": "function"
        },
        {
            "inputs": [
                {
                    "internalType": "address",
                    "name": "from",
                    "type": "address"
                },
                {
                    "internalType": "address",
                    "name": "to",
                    "type": "address"
                },
                {
                    "internalType": "uint256[]",
                    "name": "ids",
                    "type": "uint256[]"
                },
                {
                    "internalType": "uint256[]",
                    "name": "amounts",
                    "type": "uint256[]"
                },
                {
                    "internalType": "bytes",
                    "name": "data",
                    "type": "bytes"
                }
            ],
            "name": "safeBatchTransferFrom",
            "outputs": [],
            "stateMutability": "nonpayable",
            "type": "function"
        },
        {
            "inputs": [
                {
                    "internalType": "address",
                    "name": "from",
                    "type": "address"
                },
                {
                    "internalType": "address",
                    "name": "to",
                    "type": "address"
                },
                {
                    "internalType": "uint256",
                    "name": "id",
                    "type": "uint256"
                },
                {
                    "internalType": "uint256",
                    "name": "amount",
                    "type": "uint256"
                },
                {
                    "internalType": "bytes",
                    "name": "data",
                    "type": "bytes"
                }
            ],
            "name": "safeTransferFrom",
            "outputs": [],
            "stateMutability": "nonpayable",
            "type": "function"
        },
        {
            "inputs": [
                {
                    "internalType": "address",
                    "name": "operator",
                    "type": "address"
                },
                {
                    "internalType": "bool",
                    "name": "approved",
                    "type": "bool"
                }
            ],
            "name": "setApprovalForAll",
            "outputs": [],
            "stateMutability": "nonpayable",
            "type": "function"
        },
        {
            "inputs": [],
            "name": "silverIdInitialCount",
            "outputs": [
                {
                    "internalType": "uint256",
                    "name": "",
                    "type": "uint256"
                }
            ],
            "stateMutability": "view",
            "type": "function"
        },
        {
            "inputs": [
                {
                    "internalType": "bytes4",
                    "name": "interfaceId",
                    "type": "bytes4"
                }
            ],
            "name": "supportsInterface",
            "outputs": [
                {
                    "internalType": "bool",
                    "name": "",
                    "type": "bool"
                }
            ],
            "stateMutability": "view",
            "type": "function"
        },
        {
            "inputs": [
                {
                    "internalType": "address",
                    "name": "from",
                    "type": "address"
                },
                {
                    "internalType": "address",
                    "name": "to",
                    "type": "address"
                },
                {
                    "internalType": "uint256",
                    "name": "id",
                    "type": "uint256"
                },
                {
                    "internalType": "uint256",
                    "name": "amount",
                    "type": "uint256"
                }
            ],
            "name": "transferNFT",
            "outputs": [],
            "stateMutability": "nonpayable",
            "type": "function"
        },
        {
            "inputs": [
                {
                    "internalType": "address",
                    "name": "newOwner",
                    "type": "address"
                }
            ],
            "name": "transferOwnership",
            "outputs": [],
            "stateMutability": "nonpayable",
            "type": "function"
        },
        {
            "inputs": [
                {
                    "internalType": "uint256",
                    "name": "",
                    "type": "uint256"
                }
            ],
            "name": "uri",
            "outputs": [
                {
                    "internalType": "string",
                    "name": "",
                    "type": "string"
                }
            ],
            "stateMutability": "view",
            "type": "function"
        },
        {
            "inputs": [],
            "name": "whiteIdInitialCount",
            "outputs": [
                {
                    "internalType": "uint256",
                    "name": "",
                    "type": "uint256"
                }
            ],
            "stateMutability": "view",
            "type": "function"
        }
    ],
    "bytecode": "0x60806040523480156200001157600080fd5b506040518060600160405280602d8152602001620043c4602d91396200003d81620001c160201b60201c565b506200005e62000052620001dd60201b60201c565b620001e560201b60201c565b33600460006101000a81548173ffffffffffffffffffffffffffffffffffffffff021916908373ffffffffffffffffffffffffffffffffffffffff160217905550620000e6600460009054906101000a900473ffffffffffffffffffffffffffffffffffffffff166000602d60405180602001604052806000815250620002ab60201b60201c565b6200012d600460009054906101000a900473ffffffffffffffffffffffffffffffffffffffff166001600f60405180602001604052806000815250620002ab60201b60201c565b62000174600460009054906101000a900473ffffffffffffffffffffffffffffffffffffffff166002600f60405180602001604052806000815250620002ab60201b60201c565b620001bb600460009054906101000a900473ffffffffffffffffffffffffffffffffffffffff166003600f60405180602001604052806000815250620002ab60201b60201c565b62000ee4565b8060029080519060200190620001d992919062000799565b5050565b600033905090565b6000600360009054906101000a900473ffffffffffffffffffffffffffffffffffffffff16905081600360006101000a81548173ffffffffffffffffffffffffffffffffffffffff021916908373ffffffffffffffffffffffffffffffffffffffff1602179055508173ffffffffffffffffffffffffffffffffffffffff168173ffffffffffffffffffffffffffffffffffffffff167f8be0079c531659141344cd1fd0a4f28419497f9722a3daafe3b4186f6b6457e060405160405180910390a35050565b600073ffffffffffffffffffffffffffffffffffffffff168473ffffffffffffffffffffffffffffffffffffffff1614156200031e576040517f08c379a0000000000000000000000000000000000000000000000000000000008152600401620003159062000a71565b60405180910390fd5b600062000330620001dd60201b60201c565b9050600062000345856200049360201b60201c565b905060006200035a856200049360201b60201c565b905062000373836000898585896200055c60201b60201c565b8460008088815260200190815260200160002060008973ffffffffffffffffffffffffffffffffffffffff1673ffffffffffffffffffffffffffffffffffffffff1681526020019081526020016000206000828254620003d4919062000b02565b925050819055508673ffffffffffffffffffffffffffffffffffffffff16600073ffffffffffffffffffffffffffffffffffffffff168473ffffffffffffffffffffffffffffffffffffffff167fc3d58168c5ae7397731d063d5bbf3d657854427343f4c083240f7aacaa2d0f6289896040516200045492919062000a93565b60405180910390a462000473836000898585896200056460201b60201c565b6200048a836000898989896200056c60201b60201c565b50505050505050565b60606000600167ffffffffffffffff811115620004d9577f4e487b7100000000000000000000000000000000000000000000000000000000600052604160045260246000fd5b604051908082528060200260200182016040528015620005085781602001602082028036833780820191505090505b509050828160008151811062000547577f4e487b7100000000000000000000000000000000000000000000000000000000600052603260045260246000fd5b60200260200101818152505080915050919050565b505050505050565b505050505050565b620005988473ffffffffffffffffffffffffffffffffffffffff166200077660201b62000e241760201c565b156200076e578373ffffffffffffffffffffffffffffffffffffffff1663f23a6e6187878686866040518663ffffffff1660e01b8152600401620005e1959493929190620009a5565b602060405180830381600087803b158015620005fc57600080fd5b505af19250505080156200063057506040513d601f19601f820116820180604052508101906200062d919062000860565b60015b620006e2576200063f62000cf8565b806308c379a01415620006a357506200065762000e28565b80620006645750620006a5565b806040517f08c379a00000000000000000000000000000000000000000000000000000000081526004016200069a919062000a09565b60405180910390fd5b505b6040517f08c379a0000000000000000000000000000000000000000000000000000000008152600401620006d99062000a2d565b60405180910390fd5b63f23a6e6160e01b7bffffffffffffffffffffffffffffffffffffffffffffffffffffffff1916817bffffffffffffffffffffffffffffffffffffffffffffffffffffffff1916146200076c576040517f08c379a0000000000000000000000000000000000000000000000000000000008152600401620007639062000a4f565b60405180910390fd5b505b505050505050565b6000808273ffffffffffffffffffffffffffffffffffffffff163b119050919050565b828054620007a79062000bff565b90600052602060002090601f016020900481019282620007cb576000855562000817565b82601f10620007e657805160ff191683800117855562000817565b8280016001018555821562000817579182015b8281111562000816578251825591602001919060010190620007f9565b5b5090506200082691906200082a565b5090565b5b80821115620008455760008160009055506001016200082b565b5090565b6000815190506200085a8162000eca565b92915050565b6000602082840312156200087357600080fd5b6000620008838482850162000849565b91505092915050565b620008978162000b5f565b82525050565b6000620008aa8262000aca565b620008b6818562000ae0565b9350620008c881856020860162000bc9565b620008d38162000d1d565b840191505092915050565b6000620008eb8262000ad5565b620008f7818562000af1565b93506200090981856020860162000bc9565b620009148162000d1d565b840191505092915050565b60006200092e60348362000af1565b91506200093b8262000d3b565b604082019050919050565b60006200095560288362000af1565b9150620009628262000d8a565b604082019050919050565b60006200097c60218362000af1565b9150620009898262000dd9565b604082019050919050565b6200099f8162000bbf565b82525050565b600060a082019050620009bc60008301886200088c565b620009cb60208301876200088c565b620009da604083018662000994565b620009e9606083018562000994565b8181036080830152620009fd81846200089d565b90509695505050505050565b6000602082019050818103600083015262000a258184620008de565b905092915050565b6000602082019050818103600083015262000a48816200091f565b9050919050565b6000602082019050818103600083015262000a6a8162000946565b9050919050565b6000602082019050818103600083015262000a8c816200096d565b9050919050565b600060408201905062000aaa600083018562000994565b62000ab9602083018462000994565b9392505050565b6000604051905090565b600081519050919050565b600081519050919050565b600082825260208201905092915050565b600082825260208201905092915050565b600062000b0f8262000bbf565b915062000b1c8362000bbf565b9250827fffffffffffffffffffffffffffffffffffffffffffffffffffffffffffffffff0382111562000b545762000b5362000c6b565b5b828201905092915050565b600062000b6c8262000b9f565b9050919050565b60007fffffffff0000000000000000000000000000000000000000000000000000000082169050919050565b600073ffffffffffffffffffffffffffffffffffffffff82169050919050565b6000819050919050565b60005b8381101562000be957808201518184015260208101905062000bcc565b8381111562000bf9576000848401525b50505050565b6000600282049050600182168062000c1857607f821691505b6020821081141562000c2f5762000c2e62000c9a565b5b50919050565b62000c408262000d1d565b810181811067ffffffffffffffff8211171562000c625762000c6162000cc9565b5b80604052505050565b7f4e487b7100000000000000000000000000000000000000000000000000000000600052601160045260246000fd5b7f4e487b7100000000000000000000000000000000000000000000000000000000600052602260045260246000fd5b7f4e487b7100000000000000000000000000000000000000000000000000000000600052604160045260246000fd5b600060033d111562000d1a5760046000803e62000d1760005162000d2e565b90505b90565b6000601f19601f8301169050919050565b60008160e01c9050919050565b7f455243313135353a207472616e7366657220746f206e6f6e204552433131353560008201527f526563656976657220696d706c656d656e746572000000000000000000000000602082015250565b7f455243313135353a204552433131353552656365697665722072656a6563746560008201527f6420746f6b656e73000000000000000000000000000000000000000000000000602082015250565b7f455243313135353a206d696e7420746f20746865207a65726f2061646472657360008201527f7300000000000000000000000000000000000000000000000000000000000000602082015250565b600060443d101562000e3a5762000ec7565b62000e4462000ac0565b60043d036004823e80513d602482011167ffffffffffffffff8211171562000e6e57505062000ec7565b808201805167ffffffffffffffff81111562000e8e575050505062000ec7565b80602083010160043d03850181111562000ead57505050505062000ec7565b62000ebe8260200185018662000c35565b82955050505050505b90565b62000ed58162000b73565b811462000ee157600080fd5b50565b6134d08062000ef46000396000f3fe608060405234801561001057600080fd5b50600436106101575760003560e01c8063715018a6116100c3578063e4a9c1601161007c578063e4a9c160146103b6578063e985e9c5146103d4578063f242432a14610404578063f2fde38b14610420578063f5298aca1461043c578063f851a4401461045857610157565b8063715018a6146103185780638da5cb5b14610322578063a22cb46514610340578063d610f20f1461035c578063e00fd5431461037a578063e3e55f081461039857610157565b80632eb2c2d6116101155780632eb2c2d6146102425780633e4bee381461025e5780634ad08b591461027c5780634e1273f4146102ac57806355e2211d146102dc57806357177625146102fa57610157565b8062fdd58e1461015c57806301ffc9a71461018c57806303ff52b7146101bc5780630e89341c146101d8578063156e29f614610208578063272e13ce14610224575b600080fd5b610176600480360381019061017191906123e1565b610476565b6040516101839190612b94565b60405180910390f35b6101a660048036038101906101a191906124d8565b61053f565b6040516101b39190612997565b60405180910390f35b6101d660048036038101906101d191906122b3565b610621565b005b6101f260048036038101906101ed919061252a565b6106bf565b6040516101ff91906129b2565b60405180910390f35b610222600480360381019061021d919061241d565b610753565b005b61022c6107ef565b6040516102399190612b94565b60405180910390f35b61025c600480360381019061025791906121f4565b6107f4565b005b610266610895565b6040516102739190612b94565b60405180910390f35b610296600480360381019061029191906123e1565b61089a565b6040516102a39190612b94565b60405180910390f35b6102c660048036038101906102c1919061246c565b6108ae565b6040516102d3919061293e565b60405180910390f35b6102e4610a5f565b6040516102f19190612b94565b60405180910390f35b610302610a64565b60405161030f9190612b94565b60405180910390f35b610320610a69565b005b61032a610af1565b6040516103379190612861565b60405180910390f35b61035a600480360381019061035591906123a5565b610b1b565b005b610364610b31565b6040516103719190612b94565b60405180910390f35b610382610b36565b60405161038f9190612b94565b60405180910390f35b6103a0610b3b565b6040516103ad9190612b94565b60405180910390f35b6103be610b40565b6040516103cb9190612b94565b60405180910390f35b6103ee60048036038101906103e991906121b8565b610b45565b6040516103fb9190612997565b60405180910390f35b61041e60048036038101906104199190612316565b610bd9565b005b61043a6004803603810190610435919061218f565b610c7a565b005b6104566004803603810190610451919061241d565b610d72565b005b610460610dfe565b60405161046d9190612861565b60405180910390f35b60008073ffffffffffffffffffffffffffffffffffffffff168373ffffffffffffffffffffffffffffffffffffffff1614156104e7576040517f08c379a00000000000000000000000000000000000000000000000000000000081526004016104de90612a74565b60405180910390fd5b60008083815260200190815260200160002060008473ffffffffffffffffffffffffffffffffffffffff1673ffffffffffffffffffffffffffffffffffffffff16815260200190815260200160002054905092915050565b60007fd9b67a26000000000000000000000000000000000000000000000000000000007bffffffffffffffffffffffffffffffffffffffffffffffffffffffff1916827bffffffffffffffffffffffffffffffffffffffffffffffffffffffff1916148061060a57507f0e89341c000000000000000000000000000000000000000000000000000000007bffffffffffffffffffffffffffffffffffffffffffffffffffffffff1916827bffffffffffffffffffffffffffffffffffffffffffffffffffffffff1916145b8061061a575061061982610e47565b5b9050919050565b610629610eb1565b73ffffffffffffffffffffffffffffffffffffffff16610647610af1565b73ffffffffffffffffffffffffffffffffffffffff161461069d576040517f08c379a000000000000000000000000000000000000000000000000000000000815260040161069490612af4565b60405180910390fd5b6106b98484848460405180602001604052806000815250610bd9565b50505050565b6060600280546106ce90612e03565b80601f01602080910402602001604051908101604052809291908181526020018280546106fa90612e03565b80156107475780601f1061071c57610100808354040283529160200191610747565b820191906000526020600020905b81548152906001019060200180831161072a57829003601f168201915b50505050509050919050565b61075b610eb1565b73ffffffffffffffffffffffffffffffffffffffff16610779610af1565b73ffffffffffffffffffffffffffffffffffffffff16146107cf576040517f08c379a00000000000000000000000000000000000000000000000000000000081526004016107c690612af4565b60405180910390fd5b6107ea83838360405180602001604052806000815250610eb9565b505050565b602d81565b6107fc610eb1565b73ffffffffffffffffffffffffffffffffffffffff168573ffffffffffffffffffffffffffffffffffffffff16148061084257506108418561083c610eb1565b610b45565b5b610881576040517f08c379a0000000000000000000000000000000000000000000000000000000008152600401610878906129f4565b60405180910390fd5b61088e858585858561106a565b5050505050565b600381565b60006108a68383610476565b905092915050565b606081518351146108f4576040517f08c379a00000000000000000000000000000000000000000000000000000000081526004016108eb90612b34565b60405180910390fd5b6000835167ffffffffffffffff811115610937577f4e487b7100000000000000000000000000000000000000000000000000000000600052604160045260246000fd5b6040519080825280602002602001820160405280156109655781602001602082028036833780820191505090505b50905060005b8451811015610a54576109fe8582815181106109b0577f4e487b7100000000000000000000000000000000000000000000000000000000600052603260045260246000fd5b60200260200101518583815181106109f1577f4e487b7100000000000000000000000000000000000000000000000000000000600052603260045260246000fd5b6020026020010151610476565b828281518110610a37577f4e487b7100000000000000000000000000000000000000000000000000000000600052603260045260246000fd5b60200260200101818152505080610a4d90612e66565b905061096b565b508091505092915050565b600f81565b600081565b610a71610eb1565b73ffffffffffffffffffffffffffffffffffffffff16610a8f610af1565b73ffffffffffffffffffffffffffffffffffffffff1614610ae5576040517f08c379a0000000000000000000000000000000000000000000000000000000008152600401610adc90612af4565b60405180910390fd5b610aef60006113d8565b565b6000600360009054906101000a900473ffffffffffffffffffffffffffffffffffffffff16905090565b610b2d610b26610eb1565b838361149e565b5050565b600f81565b600181565b600281565b600f81565b6000600160008473ffffffffffffffffffffffffffffffffffffffff1673ffffffffffffffffffffffffffffffffffffffff16815260200190815260200160002060008373ffffffffffffffffffffffffffffffffffffffff1673ffffffffffffffffffffffffffffffffffffffff16815260200190815260200160002060009054906101000a900460ff16905092915050565b610be1610eb1565b73ffffffffffffffffffffffffffffffffffffffff168573ffffffffffffffffffffffffffffffffffffffff161480610c275750610c2685610c21610eb1565b610b45565b5b610c66576040517f08c379a0000000000000000000000000000000000000000000000000000000008152600401610c5d906129f4565b60405180910390fd5b610c73858585858561160b565b5050505050565b610c82610eb1565b73ffffffffffffffffffffffffffffffffffffffff16610ca0610af1565b73ffffffffffffffffffffffffffffffffffffffff1614610cf6576040517f08c379a0000000000000000000000000000000000000000000000000000000008152600401610ced90612af4565b60405180910390fd5b600073ffffffffffffffffffffffffffffffffffffffff168173ffffffffffffffffffffffffffffffffffffffff161415610d66576040517f08c379a0000000000000000000000000000000000000000000000000000000008152600401610d5d90612a34565b60405180910390fd5b610d6f816113d8565b50565b610d7a610eb1565b73ffffffffffffffffffffffffffffffffffffffff16610d98610af1565b73ffffffffffffffffffffffffffffffffffffffff1614610dee576040517f08c379a0000000000000000000000000000000000000000000000000000000008152600401610de590612af4565b60405180910390fd5b610df98383836118a7565b505050565b600460009054906101000a900473ffffffffffffffffffffffffffffffffffffffff1681565b6000808273ffffffffffffffffffffffffffffffffffffffff163b119050919050565b60007f01ffc9a7000000000000000000000000000000000000000000000000000000007bffffffffffffffffffffffffffffffffffffffffffffffffffffffff1916827bffffffffffffffffffffffffffffffffffffffffffffffffffffffff1916149050919050565b600033905090565b600073ffffffffffffffffffffffffffffffffffffffff168473ffffffffffffffffffffffffffffffffffffffff161415610f29576040517f08c379a0000000000000000000000000000000000000000000000000000000008152600401610f2090612b74565b60405180910390fd5b6000610f33610eb1565b90506000610f4085611aee565b90506000610f4d85611aee565b9050610f5e83600089858589611bb4565b8460008088815260200190815260200160002060008973ffffffffffffffffffffffffffffffffffffffff1673ffffffffffffffffffffffffffffffffffffffff1681526020019081526020016000206000828254610fbd9190612cf7565b925050819055508673ffffffffffffffffffffffffffffffffffffffff16600073ffffffffffffffffffffffffffffffffffffffff168473ffffffffffffffffffffffffffffffffffffffff167fc3d58168c5ae7397731d063d5bbf3d657854427343f4c083240f7aacaa2d0f62898960405161103b929190612baf565b60405180910390a461105283600089858589611bbc565b61106183600089898989611bc4565b50505050505050565b81518351146110ae576040517f08c379a00000000000000000000000000000000000000000000000000000000081526004016110a590612b54565b60405180910390fd5b600073ffffffffffffffffffffffffffffffffffffffff168473ffffffffffffffffffffffffffffffffffffffff16141561111e576040517f08c379a000000000000000000000000000000000000000000000000000000000815260040161111590612a94565b60405180910390fd5b6000611128610eb1565b9050611138818787878787611bb4565b60005b845181101561133557600085828151811061117f577f4e487b7100000000000000000000000000000000000000000000000000000000600052603260045260246000fd5b6020026020010151905060008583815181106111c4577f4e487b7100000000000000000000000000000000000000000000000000000000600052603260045260246000fd5b60200260200101519050600080600084815260200190815260200160002060008b73ffffffffffffffffffffffffffffffffffffffff1673ffffffffffffffffffffffffffffffffffffffff16815260200190815260200160002054905081811015611265576040517f08c379a000000000000000000000000000000000000000000000000000000000815260040161125c90612ad4565b60405180910390fd5b81810360008085815260200190815260200160002060008c73ffffffffffffffffffffffffffffffffffffffff1673ffffffffffffffffffffffffffffffffffffffff168152602001908152602001600020819055508160008085815260200190815260200160002060008b73ffffffffffffffffffffffffffffffffffffffff1673ffffffffffffffffffffffffffffffffffffffff168152602001908152602001600020600082825461131a9190612cf7565b925050819055505050508061132e90612e66565b905061113b565b508473ffffffffffffffffffffffffffffffffffffffff168673ffffffffffffffffffffffffffffffffffffffff168273ffffffffffffffffffffffffffffffffffffffff167f4a39dc06d4c0dbc64b70af90fd698a233a518aa5d07e595d983b8c0526c8f7fb87876040516113ac929190612960565b60405180910390a46113c2818787878787611bbc565b6113d0818787878787611dab565b505050505050565b6000600360009054906101000a900473ffffffffffffffffffffffffffffffffffffffff16905081600360006101000a81548173ffffffffffffffffffffffffffffffffffffffff021916908373ffffffffffffffffffffffffffffffffffffffff1602179055508173ffffffffffffffffffffffffffffffffffffffff168173ffffffffffffffffffffffffffffffffffffffff167f8be0079c531659141344cd1fd0a4f28419497f9722a3daafe3b4186f6b6457e060405160405180910390a35050565b8173ffffffffffffffffffffffffffffffffffffffff168373ffffffffffffffffffffffffffffffffffffffff16141561150d576040517f08c379a000000000000000000000000000000000000000000000000000000000815260040161150490612b14565b60405180910390fd5b80600160008573ffffffffffffffffffffffffffffffffffffffff1673ffffffffffffffffffffffffffffffffffffffff16815260200190815260200160002060008473ffffffffffffffffffffffffffffffffffffffff1673ffffffffffffffffffffffffffffffffffffffff16815260200190815260200160002060006101000a81548160ff0219169083151502179055508173ffffffffffffffffffffffffffffffffffffffff168373ffffffffffffffffffffffffffffffffffffffff167f17307eab39ab6107e8899845ad3d59bd9653f200f220920489ca2b5937696c31836040516115fe9190612997565b60405180910390a3505050565b600073ffffffffffffffffffffffffffffffffffffffff168473ffffffffffffffffffffffffffffffffffffffff16141561167b576040517f08c379a000000000000000000000000000000000000000000000000000000000815260040161167290612a94565b60405180910390fd5b6000611685610eb1565b9050600061169285611aee565b9050600061169f85611aee565b90506116af838989858589611bb4565b600080600088815260200190815260200160002060008a73ffffffffffffffffffffffffffffffffffffffff1673ffffffffffffffffffffffffffffffffffffffff16815260200190815260200160002054905085811015611746576040517f08c379a000000000000000000000000000000000000000000000000000000000815260040161173d90612ad4565b60405180910390fd5b85810360008089815260200190815260200160002060008b73ffffffffffffffffffffffffffffffffffffffff1673ffffffffffffffffffffffffffffffffffffffff168152602001908152602001600020819055508560008089815260200190815260200160002060008a73ffffffffffffffffffffffffffffffffffffffff1673ffffffffffffffffffffffffffffffffffffffff16815260200190815260200160002060008282546117fb9190612cf7565b925050819055508773ffffffffffffffffffffffffffffffffffffffff168973ffffffffffffffffffffffffffffffffffffffff168573ffffffffffffffffffffffffffffffffffffffff167fc3d58168c5ae7397731d063d5bbf3d657854427343f4c083240f7aacaa2d0f628a8a604051611878929190612baf565b60405180910390a461188e848a8a86868a611bbc565b61189c848a8a8a8a8a611bc4565b505050505050505050565b600073ffffffffffffffffffffffffffffffffffffffff168373ffffffffffffffffffffffffffffffffffffffff161415611917576040517f08c379a000000000000000000000000000000000000000000000000000000000815260040161190e90612ab4565b60405180910390fd5b6000611921610eb1565b9050600061192e84611aee565b9050600061193b84611aee565b905061195b83876000858560405180602001604052806000815250611bb4565b600080600087815260200190815260200160002060008873ffffffffffffffffffffffffffffffffffffffff1673ffffffffffffffffffffffffffffffffffffffff168152602001908152602001600020549050848110156119f2576040517f08c379a00000000000000000000000000000000000000000000000000000000081526004016119e990612a54565b60405180910390fd5b84810360008088815260200190815260200160002060008973ffffffffffffffffffffffffffffffffffffffff1673ffffffffffffffffffffffffffffffffffffffff16815260200190815260200160002081905550600073ffffffffffffffffffffffffffffffffffffffff168773ffffffffffffffffffffffffffffffffffffffff168573ffffffffffffffffffffffffffffffffffffffff167fc3d58168c5ae7397731d063d5bbf3d657854427343f4c083240f7aacaa2d0f628989604051611abf929190612baf565b60405180910390a4611ae584886000868660405180602001604052806000815250611bbc565b50505050505050565b60606000600167ffffffffffffffff811115611b33577f4e487b7100000000000000000000000000000000000000000000000000000000600052604160045260246000fd5b604051908082528060200260200182016040528015611b615781602001602082028036833780820191505090505b5090508281600081518110611b9f577f4e487b7100000000000000000000000000000000000000000000000000000000600052603260045260246000fd5b60200260200101818152505080915050919050565b505050505050565b505050505050565b611be38473ffffffffffffffffffffffffffffffffffffffff16610e24565b15611da3578373ffffffffffffffffffffffffffffffffffffffff1663f23a6e6187878686866040518663ffffffff1660e01b8152600401611c299594939291906128e4565b602060405180830381600087803b158015611c4357600080fd5b505af1925050508015611c7457506040513d601f19601f82011682018060405250810190611c719190612501565b60015b611d1a57611c80612f3c565b806308c379a01415611cdd5750611c956133a8565b80611ca05750611cdf565b806040517f08c379a0000000000000000000000000000000000000000000000000000000008152600401611cd491906129b2565b60405180910390fd5b505b6040517f08c379a0000000000000000000000000000000000000000000000000000000008152600401611d11906129d4565b60405180910390fd5b63f23a6e6160e01b7bffffffffffffffffffffffffffffffffffffffffffffffffffffffff1916817bffffffffffffffffffffffffffffffffffffffffffffffffffffffff191614611da1576040517f08c379a0000000000000000000000000000000000000000000000000000000008152600401611d9890612a14565b60405180910390fd5b505b505050505050565b611dca8473ffffffffffffffffffffffffffffffffffffffff16610e24565b15611f8a578373ffffffffffffffffffffffffffffffffffffffff1663bc197c8187878686866040518663ffffffff1660e01b8152600401611e1095949392919061287c565b602060405180830381600087803b158015611e2a57600080fd5b505af1925050508015611e5b57506040513d601f19601f82011682018060405250810190611e589190612501565b60015b611f0157611e67612f3c565b806308c379a01415611ec45750611e7c6133a8565b80611e875750611ec6565b806040517f08c379a0000000000000000000000000000000000000000000000000000000008152600401611ebb91906129b2565b60405180910390fd5b505b6040517f08c379a0000000000000000000000000000000000000000000000000000000008152600401611ef8906129d4565b60405180910390fd5b63bc197c8160e01b7bffffffffffffffffffffffffffffffffffffffffffffffffffffffff1916817bffffffffffffffffffffffffffffffffffffffffffffffffffffffff191614611f88576040517f08c379a0000000000000000000000000000000000000000000000000000000008152600401611f7f90612a14565b60405180910390fd5b505b505050505050565b6000611fa5611fa084612bfd565b612bd8565b90508083825260208201905082856020860282011115611fc457600080fd5b60005b85811015611ff45781611fda88826120a8565b845260208401935060208301925050600181019050611fc7565b5050509392505050565b600061201161200c84612c29565b612bd8565b9050808382526020820190508285602086028201111561203057600080fd5b60005b858110156120605781612046888261217a565b845260208401935060208301925050600181019050612033565b5050509392505050565b600061207d61207884612c55565b612bd8565b90508281526020810184848401111561209557600080fd5b6120a0848285612dc1565b509392505050565b6000813590506120b78161343e565b92915050565b600082601f8301126120ce57600080fd5b81356120de848260208601611f92565b91505092915050565b600082601f8301126120f857600080fd5b8135612108848260208601611ffe565b91505092915050565b60008135905061212081613455565b92915050565b6000813590506121358161346c565b92915050565b60008151905061214a8161346c565b92915050565b600082601f83011261216157600080fd5b813561217184826020860161206a565b91505092915050565b60008135905061218981613483565b92915050565b6000602082840312156121a157600080fd5b60006121af848285016120a8565b91505092915050565b600080604083850312156121cb57600080fd5b60006121d9858286016120a8565b92505060206121ea858286016120a8565b9150509250929050565b600080600080600060a0868803121561220c57600080fd5b600061221a888289016120a8565b955050602061222b888289016120a8565b945050604086013567ffffffffffffffff81111561224857600080fd5b612254888289016120e7565b935050606086013567ffffffffffffffff81111561227157600080fd5b61227d888289016120e7565b925050608086013567ffffffffffffffff81111561229a57600080fd5b6122a688828901612150565b9150509295509295909350565b600080600080608085870312156122c957600080fd5b60006122d7878288016120a8565b94505060206122e8878288016120a8565b93505060406122f98782880161217a565b925050606061230a8782880161217a565b91505092959194509250565b600080600080600060a0868803121561232e57600080fd5b600061233c888289016120a8565b955050602061234d888289016120a8565b945050604061235e8882890161217a565b935050606061236f8882890161217a565b925050608086013567ffffffffffffffff81111561238c57600080fd5b61239888828901612150565b9150509295509295909350565b600080604083850312156123b857600080fd5b60006123c6858286016120a8565b92505060206123d785828601612111565b9150509250929050565b600080604083850312156123f457600080fd5b6000612402858286016120a8565b92505060206124138582860161217a565b9150509250929050565b60008060006060848603121561243257600080fd5b6000612440868287016120a8565b93505060206124518682870161217a565b92505060406124628682870161217a565b9150509250925092565b6000806040838503121561247f57600080fd5b600083013567ffffffffffffffff81111561249957600080fd5b6124a5858286016120bd565b925050602083013567ffffffffffffffff8111156124c257600080fd5b6124ce858286016120e7565b9150509250929050565b6000602082840312156124ea57600080fd5b60006124f884828501612126565b91505092915050565b60006020828403121561251357600080fd5b60006125218482850161213b565b91505092915050565b60006020828403121561253c57600080fd5b600061254a8482850161217a565b91505092915050565b600061255f8383612843565b60208301905092915050565b61257481612d4d565b82525050565b600061258582612c96565b61258f8185612cc4565b935061259a83612c86565b8060005b838110156125cb5781516125b28882612553565b97506125bd83612cb7565b92505060018101905061259e565b5085935050505092915050565b6125e181612d5f565b82525050565b60006125f282612ca1565b6125fc8185612cd5565b935061260c818560208601612dd0565b61261581612f5e565b840191505092915050565b600061262b82612cac565b6126358185612ce6565b9350612645818560208601612dd0565b61264e81612f5e565b840191505092915050565b6000612666603483612ce6565b915061267182612f7c565b604082019050919050565b6000612689602f83612ce6565b915061269482612fcb565b604082019050919050565b60006126ac602883612ce6565b91506126b78261301a565b604082019050919050565b60006126cf602683612ce6565b91506126da82613069565b604082019050919050565b60006126f2602483612ce6565b91506126fd826130b8565b604082019050919050565b6000612715602a83612ce6565b915061272082613107565b604082019050919050565b6000612738602583612ce6565b915061274382613156565b604082019050919050565b600061275b602383612ce6565b9150612766826131a5565b604082019050919050565b600061277e602a83612ce6565b9150612789826131f4565b604082019050919050565b60006127a1602083612ce6565b91506127ac82613243565b602082019050919050565b60006127c4602983612ce6565b91506127cf8261326c565b604082019050919050565b60006127e7602983612ce6565b91506127f2826132bb565b604082019050919050565b600061280a602883612ce6565b91506128158261330a565b604082019050919050565b600061282d602183612ce6565b915061283882613359565b604082019050919050565b61284c81612db7565b82525050565b61285b81612db7565b82525050565b6000602082019050612876600083018461256b565b92915050565b600060a082019050612891600083018861256b565b61289e602083018761256b565b81810360408301526128b0818661257a565b905081810360608301526128c4818561257a565b905081810360808301526128d881846125e7565b90509695505050505050565b600060a0820190506128f9600083018861256b565b612906602083018761256b565b6129136040830186612852565b6129206060830185612852565b818103608083015261293281846125e7565b90509695505050505050565b60006020820190508181036000830152612958818461257a565b905092915050565b6000604082019050818103600083015261297a818561257a565b9050818103602083015261298e818461257a565b90509392505050565b60006020820190506129ac60008301846125d8565b92915050565b600060208201905081810360008301526129cc8184612620565b905092915050565b600060208201905081810360008301526129ed81612659565b9050919050565b60006020820190508181036000830152612a0d8161267c565b9050919050565b60006020820190508181036000830152612a2d8161269f565b9050919050565b60006020820190508181036000830152612a4d816126c2565b9050919050565b60006020820190508181036000830152612a6d816126e5565b9050919050565b60006020820190508181036000830152612a8d81612708565b9050919050565b60006020820190508181036000830152612aad8161272b565b9050919050565b60006020820190508181036000830152612acd8161274e565b9050919050565b60006020820190508181036000830152612aed81612771565b9050919050565b60006020820190508181036000830152612b0d81612794565b9050919050565b60006020820190508181036000830152612b2d816127b7565b9050919050565b60006020820190508181036000830152612b4d816127da565b9050919050565b60006020820190508181036000830152612b6d816127fd565b9050919050565b60006020820190508181036000830152612b8d81612820565b9050919050565b6000602082019050612ba96000830184612852565b92915050565b6000604082019050612bc46000830185612852565b612bd16020830184612852565b9392505050565b6000612be2612bf3565b9050612bee8282612e35565b919050565b6000604051905090565b600067ffffffffffffffff821115612c1857612c17612f0d565b5b602082029050602081019050919050565b600067ffffffffffffffff821115612c4457612c43612f0d565b5b602082029050602081019050919050565b600067ffffffffffffffff821115612c7057612c6f612f0d565b5b612c7982612f5e565b9050602081019050919050565b6000819050602082019050919050565b600081519050919050565b600081519050919050565b600081519050919050565b6000602082019050919050565b600082825260208201905092915050565b600082825260208201905092915050565b600082825260208201905092915050565b6000612d0282612db7565b9150612d0d83612db7565b9250827fffffffffffffffffffffffffffffffffffffffffffffffffffffffffffffffff03821115612d4257612d41612eaf565b5b828201905092915050565b6000612d5882612d97565b9050919050565b60008115159050919050565b60007fffffffff0000000000000000000000000000000000000000000000000000000082169050919050565b600073ffffffffffffffffffffffffffffffffffffffff82169050919050565b6000819050919050565b82818337600083830152505050565b60005b83811015612dee578082015181840152602081019050612dd3565b83811115612dfd576000848401525b50505050565b60006002820490506001821680612e1b57607f821691505b60208210811415612e2f57612e2e612ede565b5b50919050565b612e3e82612f5e565b810181811067ffffffffffffffff82111715612e5d57612e5c612f0d565b5b80604052505050565b6000612e7182612db7565b91507fffffffffffffffffffffffffffffffffffffffffffffffffffffffffffffffff821415612ea457612ea3612eaf565b5b600182019050919050565b7f4e487b7100000000000000000000000000000000000000000000000000000000600052601160045260246000fd5b7f4e487b7100000000000000000000000000000000000000000000000000000000600052602260045260246000fd5b7f4e487b7100000000000000000000000000000000000000000000000000000000600052604160045260246000fd5b600060033d1115612f5b5760046000803e612f58600051612f6f565b90505b90565b6000601f19601f8301169050919050565b60008160e01c9050919050565b7f455243313135353a207472616e7366657220746f206e6f6e204552433131353560008201527f526563656976657220696d706c656d656e746572000000000000000000000000602082015250565b7f455243313135353a2063616c6c6572206973206e6f7420746f6b656e206f776e60008201527f6572206e6f7220617070726f7665640000000000000000000000000000000000602082015250565b7f455243313135353a204552433131353552656365697665722072656a6563746560008201527f6420746f6b656e73000000000000000000000000000000000000000000000000602082015250565b7f4f776e61626c653a206e6577206f776e657220697320746865207a65726f206160008201527f6464726573730000000000000000000000000000000000000000000000000000602082015250565b7f455243313135353a206275726e20616d6f756e7420657863656564732062616c60008201527f616e636500000000000000000000000000000000000000000000000000000000602082015250565b7f455243313135353a2061646472657373207a65726f206973206e6f742061207660008201527f616c6964206f776e657200000000000000000000000000000000000000000000602082015250565b7f455243313135353a207472616e7366657220746f20746865207a65726f20616460008201527f6472657373000000000000000000000000000000000000000000000000000000602082015250565b7f455243313135353a206275726e2066726f6d20746865207a65726f206164647260008201527f6573730000000000000000000000000000000000000000000000000000000000602082015250565b7f455243313135353a20696e73756666696369656e742062616c616e636520666f60008201527f72207472616e7366657200000000000000000000000000000000000000000000602082015250565b7f4f776e61626c653a2063616c6c6572206973206e6f7420746865206f776e6572600082015250565b7f455243313135353a2073657474696e6720617070726f76616c2073746174757360008201527f20666f722073656c660000000000000000000000000000000000000000000000602082015250565b7f455243313135353a206163636f756e747320616e6420696473206c656e67746860008201527f206d69736d617463680000000000000000000000000000000000000000000000602082015250565b7f455243313135353a2069647320616e6420616d6f756e7473206c656e6774682060008201527f6d69736d61746368000000000000000000000000000000000000000000000000602082015250565b7f455243313135353a206d696e7420746f20746865207a65726f2061646472657360008201527f7300000000000000000000000000000000000000000000000000000000000000602082015250565b600060443d10156133b85761343b565b6133c0612bf3565b60043d036004823e80513d602482011167ffffffffffffffff821117156133e857505061343b565b808201805167ffffffffffffffff811115613406575050505061343b565b80602083010160043d03850181111561342357505050505061343b565b61343282602001850186612e35565b82955050505050505b90565b61344781612d4d565b811461345257600080fd5b50565b61345e81612d5f565b811461346957600080fd5b50565b61347581612d6b565b811461348057600080fd5b50565b61348c81612db7565b811461349757600080fd5b5056fea2646970667358221220797028be715875a351379e0dd93d02ee3e7c100129f821c3b6fc3aea2b939d0964736f6c6343000803003368747470733a2f2f35757a756d6d767a6e76336c2e7573656d6f72616c69732e636f6d2f7b69647d2e6a736f6e",
    "linkReferences": {},
    "deployedLinkReferences": {}
}