{
  "_format": "hh-sol-artifact-1",
  "contractName": "Club",
  "sourceName": "contracts/Club.sol",
  "abi": [
    {
      "inputs": [
        {
          "internalType": "uint32",
          "name": "_trainingsPerYear",
          "type": "uint32"
        },
        {
          "internalType": "uint32",
          "name": "_pointsPerTournament",
          "type": "uint32"
        }
      ],
      "stateMutability": "nonpayable",
      "type": "constructor"
    },
    {
      "anonymous": false,
      "inputs": [
        {
          "indexed": true,
          "internalType": "address",
          "name": "account",
          "type": "address"
        },
        {
          "indexed": true,
          "internalType": "address",
          "name": "operator",
          "type": "address"
        },
        {
          "indexed": false,
          "internalType": "bool",
          "name": "approved",
          "type": "bool"
        }
      ],
      "name": "ApprovalForAll",
      "type": "event"
    },
    {
      "anonymous": false,
      "inputs": [
        {
          "indexed": false,
          "internalType": "uint256",
          "name": "athleteId",
          "type": "uint256"
        },
        {
          "indexed": false,
          "internalType": "enum AthleteRegistration.Sorts",
          "name": "nftSort",
          "type": "uint8"
        }
      ],
      "name": "AthleteRecordsUpdated",
      "type": "event"
    },
    {
      "anonymous": false,
      "inputs": [
        {
          "indexed": false,
          "internalType": "uint256",
          "name": "mintCount",
          "type": "uint256"
        }
      ],
      "name": "Minted",
      "type": "event"
    },
    {
      "anonymous": false,
      "inputs": [
        {
          "indexed": false,
          "internalType": "uint256",
          "name": "athleteId",
          "type": "uint256"
        },
        {
          "indexed": false,
          "internalType": "bytes32",
          "name": "name",
          "type": "bytes32"
        }
      ],
      "name": "NewAthlete",
      "type": "event"
    },
    {
      "anonymous": false,
      "inputs": [
        {
          "indexed": true,
          "internalType": "address",
          "name": "previousOwner",
          "type": "address"
        },
        {
          "indexed": true,
          "internalType": "address",
          "name": "newOwner",
          "type": "address"
        }
      ],
      "name": "OwnershipTransferred",
      "type": "event"
    },
    {
      "anonymous": false,
      "inputs": [
        {
          "indexed": true,
          "internalType": "address",
          "name": "operator",
          "type": "address"
        },
        {
          "indexed": true,
          "internalType": "address",
          "name": "from",
          "type": "address"
        },
        {
          "indexed": true,
          "internalType": "address",
          "name": "to",
          "type": "address"
        },
        {
          "indexed": false,
          "internalType": "uint256[]",
          "name": "ids",
          "type": "uint256[]"
        },
        {
          "indexed": false,
          "internalType": "uint256[]",
          "name": "values",
          "type": "uint256[]"
        }
      ],
      "name": "TransferBatch",
      "type": "event"
    },
    {
      "anonymous": false,
      "inputs": [
        {
          "indexed": true,
          "internalType": "address",
          "name": "operator",
          "type": "address"
        },
        {
          "indexed": true,
          "internalType": "address",
          "name": "from",
          "type": "address"
        },
        {
          "indexed": true,
          "internalType": "address",
          "name": "to",
          "type": "address"
        },
        {
          "indexed": false,
          "internalType": "uint256",
          "name": "id",
          "type": "uint256"
        },
        {
          "indexed": false,
          "internalType": "uint256",
          "name": "value",
          "type": "uint256"
        }
      ],
      "name": "TransferSingle",
      "type": "event"
    },
    {
      "anonymous": false,
      "inputs": [
        {
          "indexed": false,
          "internalType": "string",
          "name": "value",
          "type": "string"
        },
        {
          "indexed": true,
          "internalType": "uint256",
          "name": "id",
          "type": "uint256"
        }
      ],
      "name": "URI",
      "type": "event"
    },
    {
      "inputs": [],
      "name": "BRONZE",
      "outputs": [
        {
          "internalType": "uint256",
          "name": "",
          "type": "uint256"
        }
      ],
      "stateMutability": "view",
      "type": "function"
    },
    {
      "inputs": [],
      "name": "GOLD",
      "outputs": [
        {
          "internalType": "uint256",
          "name": "",
          "type": "uint256"
        }
      ],
      "stateMutability": "view",
      "type": "function"
    },
    {
      "inputs": [],
      "name": "SILVER",
      "outputs": [
        {
          "internalType": "uint256",
          "name": "",
          "type": "uint256"
        }
      ],
      "stateMutability": "view",
      "type": "function"
    },
    {
      "inputs": [],
      "name": "WHITE",
      "outputs": [
        {
          "internalType": "uint256",
          "name": "",
          "type": "uint256"
        }
      ],
      "stateMutability": "view",
      "type": "function"
    },
    {
      "inputs": [],
      "name": "admin",
      "outputs": [
        {
          "internalType": "address",
          "name": "",
          "type": "address"
        }
      ],
      "stateMutability": "view",
      "type": "function"
    },
    {
      "inputs": [
        {
          "internalType": "address",
          "name": "",
          "type": "address"
        }
      ],
      "name": "athleteWalletToAthleteId",
      "outputs": [
        {
          "internalType": "uint256",
          "name": "",
          "type": "uint256"
        }
      ],
      "stateMutability": "view",
      "type": "function"
    },
    {
      "inputs": [
        {
          "internalType": "uint256",
          "name": "",
          "type": "uint256"
        }
      ],
      "name": "athletes",
      "outputs": [
        {
          "internalType": "uint256",
          "name": "athleteId",
          "type": "uint256"
        },
        {
          "internalType": "bytes32",
          "name": "name",
          "type": "bytes32"
        },
        {
          "internalType": "address",
          "name": "athleteWallet",
          "type": "address"
        },
        {
          "internalType": "enum AthleteRegistration.Sorts",
          "name": "nftSort",
          "type": "uint8"
        },
        {
          "internalType": "uint32",
          "name": "tournaments",
          "type": "uint32"
        },
        {
          "internalType": "uint32",
          "name": "trainings",
          "type": "uint32"
        }
      ],
      "stateMutability": "view",
      "type": "function"
    },
    {
      "inputs": [
        {
          "internalType": "address",
          "name": "account",
          "type": "address"
        },
        {
          "internalType": "uint256",
          "name": "id",
          "type": "uint256"
        }
      ],
      "name": "balanceOf",
      "outputs": [
        {
          "internalType": "uint256",
          "name": "",
          "type": "uint256"
        }
      ],
      "stateMutability": "view",
      "type": "function"
    },
    {
      "inputs": [
        {
          "internalType": "address[]",
          "name": "accounts",
          "type": "address[]"
        },
        {
          "internalType": "uint256[]",
          "name": "ids",
          "type": "uint256[]"
        }
      ],
      "name": "balanceOfBatch",
      "outputs": [
        {
          "internalType": "uint256[]",
          "name": "",
          "type": "uint256[]"
        }
      ],
      "stateMutability": "view",
      "type": "function"
    },
    {
      "inputs": [
        {
          "internalType": "address",
          "name": "account",
          "type": "address"
        },
        {
          "internalType": "uint256",
          "name": "id",
          "type": "uint256"
        },
        {
          "internalType": "uint256",
          "name": "amount",
          "type": "uint256"
        }
      ],
      "name": "burn",
      "outputs": [],
      "stateMutability": "nonpayable",
      "type": "function"
    },
    {
      "inputs": [
        {
          "internalType": "address",
          "name": "account",
          "type": "address"
        },
        {
          "internalType": "uint256",
          "name": "id",
          "type": "uint256"
        }
      ],
      "name": "checkBalanceOf",
      "outputs": [
        {
          "internalType": "uint256",
          "name": "",
          "type": "uint256"
        }
      ],
      "stateMutability": "view",
      "type": "function"
    },
    {
      "inputs": [],
      "name": "idCounter",
      "outputs": [
        {
          "internalType": "uint32",
          "name": "",
          "type": "uint32"
        }
      ],
      "stateMutability": "view",
      "type": "function"
    },
    {
      "inputs": [
        {
          "internalType": "uint256",
          "name": "_athleteId",
          "type": "uint256"
        },
        {
          "internalType": "uint32",
          "name": "_tournaments",
          "type": "uint32"
        },
        {
          "internalType": "uint32",
          "name": "_trainings",
          "type": "uint32"
        }
      ],
      "name": "incrementRecords",
      "outputs": [],
      "stateMutability": "nonpayable",
      "type": "function"
    },
    {
      "inputs": [
        {
          "internalType": "address",
          "name": "account",
          "type": "address"
        },
        {
          "internalType": "address",
          "name": "operator",
          "type": "address"
        }
      ],
      "name": "isApprovedForAll",
      "outputs": [
        {
          "internalType": "bool",
          "name": "",
          "type": "bool"
        }
      ],
      "stateMutability": "view",
      "type": "function"
    },
    {
      "inputs": [
        {
          "internalType": "enum AthleteRegistration.Sorts",
          "name": "",
          "type": "uint8"
        }
      ],
      "name": "minimums",
      "outputs": [
        {
          "internalType": "uint32",
          "name": "",
          "type": "uint32"
        }
      ],
      "stateMutability": "view",
      "type": "function"
    },
    {
      "inputs": [
        {
          "internalType": "address",
          "name": "account",
          "type": "address"
        },
        {
          "internalType": "uint256",
          "name": "id",
          "type": "uint256"
        },
        {
          "internalType": "uint256",
          "name": "amount",
          "type": "uint256"
        }
      ],
      "name": "mint",
      "outputs": [],
      "stateMutability": "nonpayable",
      "type": "function"
    },
    {
      "inputs": [],
      "name": "mintAndResetRecords",
      "outputs": [],
      "stateMutability": "nonpayable",
      "type": "function"
    },
    {
      "inputs": [],
      "name": "name",
      "outputs": [
        {
          "internalType": "string",
          "name": "",
          "type": "string"
        }
      ],
      "stateMutability": "view",
      "type": "function"
    },
    {
      "inputs": [],
      "name": "owner",
      "outputs": [
        {
          "internalType": "address",
          "name": "",
          "type": "address"
        }
      ],
      "stateMutability": "view",
      "type": "function"
    },
    {
      "inputs": [],
      "name": "pointsPerTournament",
      "outputs": [
        {
          "internalType": "uint32",
          "name": "",
          "type": "uint32"
        }
      ],
      "stateMutability": "view",
      "type": "function"
    },
    {
      "inputs": [
        {
          "internalType": "bytes32",
          "name": "_name",
          "type": "bytes32"
        },
        {
          "internalType": "address",
          "name": "_athleteWallet",
          "type": "address"
        }
      ],
      "name": "registerAthlete",
      "outputs": [],
      "stateMutability": "nonpayable",
      "type": "function"
    },
    {
      "inputs": [],
      "name": "renounceOwnership",
      "outputs": [],
      "stateMutability": "nonpayable",
      "type": "function"
    },
    {
      "inputs": [
        {
          "internalType": "address",
          "name": "from",
          "type": "address"
        },
        {
          "internalType": "address",
          "name": "to",
          "type": "address"
        },
        {
          "internalType": "uint256[]",
          "name": "ids",
          "type": "uint256[]"
        },
        {
          "internalType": "uint256[]",
          "name": "amounts",
          "type": "uint256[]"
        },
        {
          "internalType": "bytes",
          "name": "data",
          "type": "bytes"
        }
      ],
      "name": "safeBatchTransferFrom",
      "outputs": [],
      "stateMutability": "nonpayable",
      "type": "function"
    },
    {
      "inputs": [
        {
          "internalType": "address",
          "name": "from",
          "type": "address"
        },
        {
          "internalType": "address",
          "name": "to",
          "type": "address"
        },
        {
          "internalType": "uint256",
          "name": "id",
          "type": "uint256"
        },
        {
          "internalType": "uint256",
          "name": "amount",
          "type": "uint256"
        },
        {
          "internalType": "bytes",
          "name": "data",
          "type": "bytes"
        }
      ],
      "name": "safeTransferFrom",
      "outputs": [],
      "stateMutability": "nonpayable",
      "type": "function"
    },
    {
      "inputs": [
        {
          "internalType": "address",
          "name": "operator",
          "type": "address"
        },
        {
          "internalType": "bool",
          "name": "approved",
          "type": "bool"
        }
      ],
      "name": "setApprovalForAll",
      "outputs": [],
      "stateMutability": "nonpayable",
      "type": "function"
    },
    {
      "inputs": [
        {
          "internalType": "bytes4",
          "name": "interfaceId",
          "type": "bytes4"
        }
      ],
      "name": "supportsInterface",
      "outputs": [
        {
          "internalType": "bool",
          "name": "",
          "type": "bool"
        }
      ],
      "stateMutability": "view",
      "type": "function"
    },
    {
      "inputs": [],
      "name": "trainingsPerYear",
      "outputs": [
        {
          "internalType": "uint32",
          "name": "",
          "type": "uint32"
        }
      ],
      "stateMutability": "view",
      "type": "function"
    },
    {
      "inputs": [
        {
          "internalType": "address",
          "name": "from",
          "type": "address"
        },
        {
          "internalType": "address",
          "name": "to",
          "type": "address"
        },
        {
          "internalType": "uint256",
          "name": "id",
          "type": "uint256"
        },
        {
          "internalType": "uint256",
          "name": "amount",
          "type": "uint256"
        }
      ],
      "name": "transferNFT",
      "outputs": [],
      "stateMutability": "nonpayable",
      "type": "function"
    },
    {
      "inputs": [
        {
          "internalType": "address",
          "name": "newOwner",
          "type": "address"
        }
      ],
      "name": "transferOwnership",
      "outputs": [],
      "stateMutability": "nonpayable",
      "type": "function"
    },
    {
      "inputs": [
        {
          "internalType": "uint256",
          "name": "",
          "type": "uint256"
        }
      ],
      "name": "uri",
      "outputs": [
        {
          "internalType": "string",
          "name": "",
          "type": "string"
        }
      ],
      "stateMutability": "view",
      "type": "function"
    }
  ],
  "bytecode": "0x60806040526040518060400160405280601481526020017f54656e6e6973204e46542066726f6d204e46477300000000000000000000000081525060079080519060200190620000519291906200049e565b503480156200005f57600080fd5b506040516200548438038062005484833981810160405281019062000085919062000565565b6040518060800160405280604c815260200162005438604c9139620000b0816200036e60201b60201c565b50620000d1620000c56200038a60201b60201c565b6200039260201b60201c565b33600660006101000a81548173ffffffffffffffffffffffffffffffffffffffff021916908373ffffffffffffffffffffffffffffffffffffffff1602179055506200012482826200045860201b60201c565b6064605a83620001359190620005de565b620001419190620005a6565b600960006003808111156200017f577f4e487b7100000000000000000000000000000000000000000000000000000000600052602160045260246000fd5b6003811115620001b8577f4e487b7100000000000000000000000000000000000000000000000000000000600052602160045260246000fd5b815260200190815260200160002060006101000a81548163ffffffff021916908363ffffffff1602179055506064604683620001f59190620005de565b620002019190620005a6565b600960006002600381111562000240577f4e487b7100000000000000000000000000000000000000000000000000000000600052602160045260246000fd5b600381111562000279577f4e487b7100000000000000000000000000000000000000000000000000000000600052602160045260246000fd5b815260200190815260200160002060006101000a81548163ffffffff021916908363ffffffff1602179055506064603c83620002b69190620005de565b620002c29190620005a6565b600960006001600381111562000301577f4e487b7100000000000000000000000000000000000000000000000000000000600052602160045260246000fd5b60038111156200033a577f4e487b7100000000000000000000000000000000000000000000000000000000600052602160045260246000fd5b815260200190815260200160002060006101000a81548163ffffffff021916908363ffffffff160217905550505062000710565b8060029080519060200190620003869291906200049e565b5050565b600033905090565b6000600360009054906101000a900473ffffffffffffffffffffffffffffffffffffffff16905081600360006101000a81548173ffffffffffffffffffffffffffffffffffffffff021916908373ffffffffffffffffffffffffffffffffffffffff1602179055508173ffffffffffffffffffffffffffffffffffffffff168173ffffffffffffffffffffffffffffffffffffffff167f8be0079c531659141344cd1fd0a4f28419497f9722a3daafe3b4186f6b6457e060405160405180910390a35050565b80600860046101000a81548163ffffffff021916908363ffffffff16021790555081600860006101000a81548163ffffffff021916908363ffffffff1602179055505050565b828054620004ac9062000633565b90600052602060002090601f016020900481019282620004d057600085556200051c565b82601f10620004eb57805160ff19168380011785556200051c565b828001600101855582156200051c579182015b828111156200051b578251825591602001919060010190620004fe565b5b5090506200052b91906200052f565b5090565b5b808211156200054a57600081600090555060010162000530565b5090565b6000815190506200055f81620006f6565b92915050565b600080604083850312156200057957600080fd5b600062000589858286016200054e565b92505060206200059c858286016200054e565b9150509250929050565b6000620005b38262000623565b9150620005c08362000623565b925082620005d357620005d262000698565b5b828204905092915050565b6000620005eb8262000623565b9150620005f88362000623565b92508163ffffffff048311821515161562000618576200061762000669565b5b828202905092915050565b600063ffffffff82169050919050565b600060028204905060018216806200064c57607f821691505b60208210811415620006635762000662620006c7565b5b50919050565b7f4e487b7100000000000000000000000000000000000000000000000000000000600052601160045260246000fd5b7f4e487b7100000000000000000000000000000000000000000000000000000000600052601260045260246000fd5b7f4e487b7100000000000000000000000000000000000000000000000000000000600052602260045260246000fd5b620007018162000623565b81146200070d57600080fd5b50565b614d1880620007206000396000f3fe608060405234801561001057600080fd5b50600436106101d95760003560e01c8063715018a611610104578063e3e55f08116100a2578063f242432a11610071578063f242432a1461055d578063f2fde38b14610579578063f5298aca14610595578063f851a440146105b1576101d9565b8063e3e55f08146104bc578063e985e9c5146104da578063eb08ab281461050a578063edef8b8314610528576101d9565b8063b0106eac116100de578063b0106eac14610432578063c6ce434514610462578063e00fd54314610480578063e3d1f88c1461049e576101d9565b8063715018a6146103ee5780638da5cb5b146103f8578063a22cb46514610416576101d9565b80632c3a59c81161017c5780634ad08b591161014b5780634ad08b59146103665780634e1273f41461039657806356d07a08146103c657806357177625146103d0576101d9565b80632c3a59c8146102f45780632eb2c2d6146103105780633b97ba6c1461032c5780633e4bee3814610348576101d9565b806306fdde03116101b857806306fdde031461025a5780630e89341c1461027857806315027218146102a8578063156e29f6146102d8576101d9565b8062fdd58e146101de57806301ffc9a71461020e57806303ff52b71461023e575b600080fd5b6101f860048036038101906101f39190613756565b6105cf565b60405161020591906140c2565b60405180910390f35b61022860048036038101906102239190613889565b610698565b6040516102359190613e65565b60405180910390f35b61025860048036038101906102539190613628565b61077a565b005b610262610818565b60405161026f9190613e80565b60405180910390f35b610292600480360381019061028d9190613904565b6108a6565b60405161029f9190613e80565b60405180910390f35b6102c260048036038101906102bd9190613504565b61093a565b6040516102cf91906140c2565b60405180910390f35b6102f260048036038101906102ed9190613792565b610952565b005b61030e6004803603810190610309919061384d565b6109ee565b005b61032a60048036038101906103259190613569565b610da8565b005b6103466004803603810190610341919061392d565b610e49565b005b610350611086565b60405161035d91906140c2565b60405180910390f35b610380600480360381019061037b9190613756565b61108b565b60405161038d91906140c2565b60405180910390f35b6103b060048036038101906103ab91906137e1565b61109f565b6040516103bd9190613e0c565b60405180910390f35b6103ce611250565b005b6103d86113bd565b6040516103e591906140c2565b60405180910390f35b6103f66113c2565b005b61040061144a565b60405161040d9190613d2f565b60405180910390f35b610430600480360381019061042b919061371a565b611474565b005b61044c600480360381019061044791906138db565b61148a565b6040516104599190614190565b60405180910390f35b61046a6114ad565b6040516104779190614190565b60405180910390f35b6104886114c3565b60405161049591906140c2565b60405180910390f35b6104a66114c8565b6040516104b39190614190565b60405180910390f35b6104c46114de565b6040516104d191906140c2565b60405180910390f35b6104f460048036038101906104ef919061352d565b6114e3565b6040516105019190613e65565b60405180910390f35b610512611577565b60405161051f9190614190565b60405180910390f35b610542600480360381019061053d9190613904565b61158d565b604051610554969594939291906140dd565b60405180910390f35b6105776004803603810190610572919061368b565b611626565b005b610593600480360381019061058e9190613504565b6116c7565b005b6105af60048036038101906105aa9190613792565b6117bf565b005b6105b961184b565b6040516105c69190613d2f565b60405180910390f35b60008073ffffffffffffffffffffffffffffffffffffffff168373ffffffffffffffffffffffffffffffffffffffff161415610640576040517f08c379a000000000000000000000000000000000000000000000000000000000815260040161063790613ee2565b60405180910390fd5b60008083815260200190815260200160002060008473ffffffffffffffffffffffffffffffffffffffff1673ffffffffffffffffffffffffffffffffffffffff16815260200190815260200160002054905092915050565b60007fd9b67a26000000000000000000000000000000000000000000000000000000007bffffffffffffffffffffffffffffffffffffffffffffffffffffffff1916827bffffffffffffffffffffffffffffffffffffffffffffffffffffffff1916148061076357507f0e89341c000000000000000000000000000000000000000000000000000000007bffffffffffffffffffffffffffffffffffffffffffffffffffffffff1916827bffffffffffffffffffffffffffffffffffffffffffffffffffffffff1916145b80610773575061077282611871565b5b9050919050565b6107826118db565b73ffffffffffffffffffffffffffffffffffffffff166107a061144a565b73ffffffffffffffffffffffffffffffffffffffff16146107f6576040517f08c379a00000000000000000000000000000000000000000000000000000000081526004016107ed90614022565b60405180910390fd5b6108128484848460405180602001604052806000815250611626565b50505050565b60078054610825906144fc565b80601f0160208091040260200160405190810160405280929190818152602001828054610851906144fc565b801561089e5780601f106108735761010080835404028352916020019161089e565b820191906000526020600020905b81548152906001019060200180831161088157829003601f168201915b505050505081565b6060600280546108b5906144fc565b80601f01602080910402602001604051908101604052809291908181526020018280546108e1906144fc565b801561092e5780601f106109035761010080835404028352916020019161092e565b820191906000526020600020905b81548152906001019060200180831161091157829003601f168201915b50505050509050919050565b60056020528060005260406000206000915090505481565b61095a6118db565b73ffffffffffffffffffffffffffffffffffffffff1661097861144a565b73ffffffffffffffffffffffffffffffffffffffff16146109ce576040517f08c379a00000000000000000000000000000000000000000000000000000000081526004016109c590614022565b60405180910390fd5b6109e9838383604051806020016040528060008152506118e3565b505050565b806000600560008373ffffffffffffffffffffffffffffffffffffffff1673ffffffffffffffffffffffffffffffffffffffff1681526020019081526020016000205414610a71576040517f08c379a0000000000000000000000000000000000000000000000000000000008152600401610a6890613f62565b60405180910390fd5b610a796118db565b73ffffffffffffffffffffffffffffffffffffffff16610a9761144a565b73ffffffffffffffffffffffffffffffffffffffff1614610aed576040517f08c379a0000000000000000000000000000000000000000000000000000000008152600401610ae490614022565b60405180910390fd5b6003601481819054906101000a900463ffffffff1680929190610b0f906145a8565b91906101000a81548163ffffffff021916908363ffffffff1602179055505060046040518060c00160405280600360149054906101000a900463ffffffff1663ffffffff1681526020018581526020018473ffffffffffffffffffffffffffffffffffffffff16815260200160006003811115610bb5577f4e487b7100000000000000000000000000000000000000000000000000000000600052602160045260246000fd5b8152602001600063ffffffff168152602001600063ffffffff168152509080600181540180825580915050600190039060005260206000209060030201600090919091909150600082015181600001556020820151816001015560408201518160020160006101000a81548173ffffffffffffffffffffffffffffffffffffffff021916908373ffffffffffffffffffffffffffffffffffffffff16021790555060608201518160020160146101000a81548160ff02191690836003811115610ca7577f4e487b7100000000000000000000000000000000000000000000000000000000600052602160045260246000fd5b021790555060808201518160020160156101000a81548163ffffffff021916908363ffffffff16021790555060a08201518160020160196101000a81548163ffffffff021916908363ffffffff1602179055505050600360149054906101000a900463ffffffff1663ffffffff16600560008473ffffffffffffffffffffffffffffffffffffffff1673ffffffffffffffffffffffffffffffffffffffff168152602001908152602001600020819055507f494f855fb8af16b91c5bc76adfc218065d3c9ecb8d6cc14c1687ed7341a49e37600360149054906101000a900463ffffffff1684604051610d9b9291906141ab565b60405180910390a1505050565b610db06118db565b73ffffffffffffffffffffffffffffffffffffffff168573ffffffffffffffffffffffffffffffffffffffff161480610df65750610df585610df06118db565b6114e3565b5b610e35576040517f08c379a0000000000000000000000000000000000000000000000000000000008152600401610e2c90613fc2565b60405180910390fd5b610e428585858585611a94565b5050505050565b610e516118db565b73ffffffffffffffffffffffffffffffffffffffff16610e6f61144a565b73ffffffffffffffffffffffffffffffffffffffff1614610ec5576040517f08c379a0000000000000000000000000000000000000000000000000000000008152600401610ebc90614022565b60405180910390fd5b6000600184610ed491906143c1565b90508260048281548110610f11577f4e487b7100000000000000000000000000000000000000000000000000000000600052603260045260246000fd5b906000526020600020906003020160020160158282829054906101000a900463ffffffff16610f409190614349565b92506101000a81548163ffffffff021916908363ffffffff1602179055508160048281548110610f99577f4e487b7100000000000000000000000000000000000000000000000000000000600052603260045260246000fd5b906000526020600020906003020160020160198282829054906101000a900463ffffffff16610fc89190614349565b92506101000a81548163ffffffff021916908363ffffffff160217905550610fef81611e02565b7f3c14034e98b533abd806ea6e00d82ff3c05530ce980cbef8fe385fd29b34e2b0846004838154811061104b577f4e487b7100000000000000000000000000000000000000000000000000000000600052603260045260246000fd5b906000526020600020906003020160020160149054906101000a900460ff1660405161107892919061413e565b60405180910390a150505050565b600381565b600061109783836105cf565b905092915050565b606081518351146110e5576040517f08c379a00000000000000000000000000000000000000000000000000000000081526004016110dc90614062565b60405180910390fd5b6000835167ffffffffffffffff811115611128577f4e487b7100000000000000000000000000000000000000000000000000000000600052604160045260246000fd5b6040519080825280602002602001820160405280156111565781602001602082028036833780820191505090505b50905060005b8451811015611245576111ef8582815181106111a1577f4e487b7100000000000000000000000000000000000000000000000000000000600052603260045260246000fd5b60200260200101518583815181106111e2577f4e487b7100000000000000000000000000000000000000000000000000000000600052603260045260246000fd5b60200260200101516105cf565b828281518110611228577f4e487b7100000000000000000000000000000000000000000000000000000000600052603260045260246000fd5b6020026020010181815250508061123e9061455f565b905061115c565b508091505092915050565b6112586118db565b73ffffffffffffffffffffffffffffffffffffffff1661127661144a565b73ffffffffffffffffffffffffffffffffffffffff16146112cc576040517f08c379a00000000000000000000000000000000000000000000000000000000081526004016112c390614022565b60405180910390fd5b6000600360149054906101000a900463ffffffff1663ffffffff1611611327576040517f08c379a000000000000000000000000000000000000000000000000000000000815260040161131e90613f82565b60405180910390fd5b600080600090505b600360149054906101000a900463ffffffff1663ffffffff16811015611382576113588161246e565b81806113639061455f565b92505061136f81612578565b808061137a9061455f565b91505061132f565b507f176b02bb2d12439ff7a20b59f402cca16c76f50508b13ef3166a600eb719354a816040516113b291906140c2565b60405180910390a150565b600081565b6113ca6118db565b73ffffffffffffffffffffffffffffffffffffffff166113e861144a565b73ffffffffffffffffffffffffffffffffffffffff161461143e576040517f08c379a000000000000000000000000000000000000000000000000000000000815260040161143590614022565b60405180910390fd5b61144860006126eb565b565b6000600360009054906101000a900473ffffffffffffffffffffffffffffffffffffffff16905090565b61148661147f6118db565b83836127b1565b5050565b60096020528060005260406000206000915054906101000a900463ffffffff1681565b600860049054906101000a900463ffffffff1681565b600181565b600860009054906101000a900463ffffffff1681565b600281565b6000600160008473ffffffffffffffffffffffffffffffffffffffff1673ffffffffffffffffffffffffffffffffffffffff16815260200190815260200160002060008373ffffffffffffffffffffffffffffffffffffffff1673ffffffffffffffffffffffffffffffffffffffff16815260200190815260200160002060009054906101000a900460ff16905092915050565b600360149054906101000a900463ffffffff1681565b6004818154811061159d57600080fd5b90600052602060002090600302016000915090508060000154908060010154908060020160009054906101000a900473ffffffffffffffffffffffffffffffffffffffff16908060020160149054906101000a900460ff16908060020160159054906101000a900463ffffffff16908060020160199054906101000a900463ffffffff16905086565b61162e6118db565b73ffffffffffffffffffffffffffffffffffffffff168573ffffffffffffffffffffffffffffffffffffffff16148061167457506116738561166e6118db565b6114e3565b5b6116b3576040517f08c379a00000000000000000000000000000000000000000000000000000000081526004016116aa90613f42565b60405180910390fd5b6116c0858585858561291e565b5050505050565b6116cf6118db565b73ffffffffffffffffffffffffffffffffffffffff166116ed61144a565b73ffffffffffffffffffffffffffffffffffffffff1614611743576040517f08c379a000000000000000000000000000000000000000000000000000000000815260040161173a90614022565b60405180910390fd5b600073ffffffffffffffffffffffffffffffffffffffff168173ffffffffffffffffffffffffffffffffffffffff1614156117b3576040517f08c379a00000000000000000000000000000000000000000000000000000000081526004016117aa90613f02565b60405180910390fd5b6117bc816126eb565b50565b6117c76118db565b73ffffffffffffffffffffffffffffffffffffffff166117e561144a565b73ffffffffffffffffffffffffffffffffffffffff161461183b576040517f08c379a000000000000000000000000000000000000000000000000000000000815260040161183290614022565b60405180910390fd5b611846838383612bba565b505050565b600660009054906101000a900473ffffffffffffffffffffffffffffffffffffffff1681565b60007f01ffc9a7000000000000000000000000000000000000000000000000000000007bffffffffffffffffffffffffffffffffffffffffffffffffffffffff1916827bffffffffffffffffffffffffffffffffffffffffffffffffffffffff1916149050919050565b600033905090565b600073ffffffffffffffffffffffffffffffffffffffff168473ffffffffffffffffffffffffffffffffffffffff161415611953576040517f08c379a000000000000000000000000000000000000000000000000000000000815260040161194a906140a2565b60405180910390fd5b600061195d6118db565b9050600061196a85612e01565b9050600061197785612e01565b905061198883600089858589612ec7565b8460008088815260200190815260200160002060008973ffffffffffffffffffffffffffffffffffffffff1673ffffffffffffffffffffffffffffffffffffffff16815260200190815260200160002060008282546119e791906142f3565b925050819055508673ffffffffffffffffffffffffffffffffffffffff16600073ffffffffffffffffffffffffffffffffffffffff168473ffffffffffffffffffffffffffffffffffffffff167fc3d58168c5ae7397731d063d5bbf3d657854427343f4c083240f7aacaa2d0f628989604051611a65929190614167565b60405180910390a4611a7c83600089858589612ecf565b611a8b83600089898989612ed7565b50505050505050565b8151835114611ad8576040517f08c379a0000000000000000000000000000000000000000000000000000000008152600401611acf90614082565b60405180910390fd5b600073ffffffffffffffffffffffffffffffffffffffff168473ffffffffffffffffffffffffffffffffffffffff161415611b48576040517f08c379a0000000000000000000000000000000000000000000000000000000008152600401611b3f90613fa2565b60405180910390fd5b6000611b526118db565b9050611b62818787878787612ec7565b60005b8451811015611d5f576000858281518110611ba9577f4e487b7100000000000000000000000000000000000000000000000000000000600052603260045260246000fd5b602002602001015190506000858381518110611bee577f4e487b7100000000000000000000000000000000000000000000000000000000600052603260045260246000fd5b60200260200101519050600080600084815260200190815260200160002060008b73ffffffffffffffffffffffffffffffffffffffff1673ffffffffffffffffffffffffffffffffffffffff16815260200190815260200160002054905081811015611c8f576040517f08c379a0000000000000000000000000000000000000000000000000000000008152600401611c8690614002565b60405180910390fd5b81810360008085815260200190815260200160002060008c73ffffffffffffffffffffffffffffffffffffffff1673ffffffffffffffffffffffffffffffffffffffff168152602001908152602001600020819055508160008085815260200190815260200160002060008b73ffffffffffffffffffffffffffffffffffffffff1673ffffffffffffffffffffffffffffffffffffffff1681526020019081526020016000206000828254611d4491906142f3565b9250508190555050505080611d589061455f565b9050611b65565b508473ffffffffffffffffffffffffffffffffffffffff168673ffffffffffffffffffffffffffffffffffffffff168273ffffffffffffffffffffffffffffffffffffffff167f4a39dc06d4c0dbc64b70af90fd698a233a518aa5d07e595d983b8c0526c8f7fb8787604051611dd6929190613e2e565b60405180910390a4611dec818787878787612ecf565b611dfa8187878787876130be565b505050505050565b60096000600380811115611e3f577f4e487b7100000000000000000000000000000000000000000000000000000000600052602160045260246000fd5b6003811115611e77577f4e487b7100000000000000000000000000000000000000000000000000000000600052602160045260246000fd5b815260200190815260200160002060009054906101000a900463ffffffff1663ffffffff1660048281548110611ed6577f4e487b7100000000000000000000000000000000000000000000000000000000600052603260045260246000fd5b906000526020600020906003020160020160199054906101000a900463ffffffff16600860049054906101000a900463ffffffff1660048481548110611f45577f4e487b7100000000000000000000000000000000000000000000000000000000600052603260045260246000fd5b906000526020600020906003020160020160159054906101000a900463ffffffff16611f719190614383565b611f7b9190614349565b63ffffffff161061202557600360048281548110611fc2577f4e487b7100000000000000000000000000000000000000000000000000000000600052603260045260246000fd5b906000526020600020906003020160020160146101000a81548160ff0219169083600381111561201b577f4e487b7100000000000000000000000000000000000000000000000000000000600052602160045260246000fd5b021790555061246b565b6009600060026003811115612063577f4e487b7100000000000000000000000000000000000000000000000000000000600052602160045260246000fd5b600381111561209b577f4e487b7100000000000000000000000000000000000000000000000000000000600052602160045260246000fd5b815260200190815260200160002060009054906101000a900463ffffffff1663ffffffff16600482815481106120fa577f4e487b7100000000000000000000000000000000000000000000000000000000600052603260045260246000fd5b906000526020600020906003020160020160199054906101000a900463ffffffff16600860049054906101000a900463ffffffff1660048481548110612169577f4e487b7100000000000000000000000000000000000000000000000000000000600052603260045260246000fd5b906000526020600020906003020160020160159054906101000a900463ffffffff166121959190614383565b61219f9190614349565b63ffffffff1610612249576002600482815481106121e6577f4e487b7100000000000000000000000000000000000000000000000000000000600052603260045260246000fd5b906000526020600020906003020160020160146101000a81548160ff0219169083600381111561223f577f4e487b7100000000000000000000000000000000000000000000000000000000600052602160045260246000fd5b021790555061246a565b6009600060016003811115612287577f4e487b7100000000000000000000000000000000000000000000000000000000600052602160045260246000fd5b60038111156122bf577f4e487b7100000000000000000000000000000000000000000000000000000000600052602160045260246000fd5b815260200190815260200160002060009054906101000a900463ffffffff1663ffffffff166004828154811061231e577f4e487b7100000000000000000000000000000000000000000000000000000000600052603260045260246000fd5b906000526020600020906003020160020160199054906101000a900463ffffffff16600860049054906101000a900463ffffffff166004848154811061238d577f4e487b7100000000000000000000000000000000000000000000000000000000600052603260045260246000fd5b906000526020600020906003020160020160159054906101000a900463ffffffff166123b99190614383565b6123c39190614349565b63ffffffff16106124695760016004828154811061240a577f4e487b7100000000000000000000000000000000000000000000000000000000600052603260045260246000fd5b906000526020600020906003020160020160146101000a81548160ff02191690836003811115612463577f4e487b7100000000000000000000000000000000000000000000000000000000600052602160045260246000fd5b02179055505b5b5b50565b612575600482815481106124ab577f4e487b7100000000000000000000000000000000000000000000000000000000600052603260045260246000fd5b906000526020600020906003020160020160009054906101000a900473ffffffffffffffffffffffffffffffffffffffff1660048381548110612517577f4e487b7100000000000000000000000000000000000000000000000000000000600052603260045260246000fd5b906000526020600020906003020160020160149054906101000a900460ff16600381111561256e577f4e487b7100000000000000000000000000000000000000000000000000000000600052602160045260246000fd5b6001610952565b50565b6000600482815481106125b4577f4e487b7100000000000000000000000000000000000000000000000000000000600052603260045260246000fd5b906000526020600020906003020160020160156101000a81548163ffffffff021916908363ffffffff16021790555060006004828154811061261f577f4e487b7100000000000000000000000000000000000000000000000000000000600052603260045260246000fd5b906000526020600020906003020160020160196101000a81548163ffffffff021916908363ffffffff16021790555060006004828154811061268a577f4e487b7100000000000000000000000000000000000000000000000000000000600052603260045260246000fd5b906000526020600020906003020160020160146101000a81548160ff021916908360038111156126e3577f4e487b7100000000000000000000000000000000000000000000000000000000600052602160045260246000fd5b021790555050565b6000600360009054906101000a900473ffffffffffffffffffffffffffffffffffffffff16905081600360006101000a81548173ffffffffffffffffffffffffffffffffffffffff021916908373ffffffffffffffffffffffffffffffffffffffff1602179055508173ffffffffffffffffffffffffffffffffffffffff168173ffffffffffffffffffffffffffffffffffffffff167f8be0079c531659141344cd1fd0a4f28419497f9722a3daafe3b4186f6b6457e060405160405180910390a35050565b8173ffffffffffffffffffffffffffffffffffffffff168373ffffffffffffffffffffffffffffffffffffffff161415612820576040517f08c379a000000000000000000000000000000000000000000000000000000000815260040161281790614042565b60405180910390fd5b80600160008573ffffffffffffffffffffffffffffffffffffffff1673ffffffffffffffffffffffffffffffffffffffff16815260200190815260200160002060008473ffffffffffffffffffffffffffffffffffffffff1673ffffffffffffffffffffffffffffffffffffffff16815260200190815260200160002060006101000a81548160ff0219169083151502179055508173ffffffffffffffffffffffffffffffffffffffff168373ffffffffffffffffffffffffffffffffffffffff167f17307eab39ab6107e8899845ad3d59bd9653f200f220920489ca2b5937696c31836040516129119190613e65565b60405180910390a3505050565b600073ffffffffffffffffffffffffffffffffffffffff168473ffffffffffffffffffffffffffffffffffffffff16141561298e576040517f08c379a000000000000000000000000000000000000000000000000000000000815260040161298590613fa2565b60405180910390fd5b60006129986118db565b905060006129a585612e01565b905060006129b285612e01565b90506129c2838989858589612ec7565b600080600088815260200190815260200160002060008a73ffffffffffffffffffffffffffffffffffffffff1673ffffffffffffffffffffffffffffffffffffffff16815260200190815260200160002054905085811015612a59576040517f08c379a0000000000000000000000000000000000000000000000000000000008152600401612a5090614002565b60405180910390fd5b85810360008089815260200190815260200160002060008b73ffffffffffffffffffffffffffffffffffffffff1673ffffffffffffffffffffffffffffffffffffffff168152602001908152602001600020819055508560008089815260200190815260200160002060008a73ffffffffffffffffffffffffffffffffffffffff1673ffffffffffffffffffffffffffffffffffffffff1681526020019081526020016000206000828254612b0e91906142f3565b925050819055508773ffffffffffffffffffffffffffffffffffffffff168973ffffffffffffffffffffffffffffffffffffffff168573ffffffffffffffffffffffffffffffffffffffff167fc3d58168c5ae7397731d063d5bbf3d657854427343f4c083240f7aacaa2d0f628a8a604051612b8b929190614167565b60405180910390a4612ba1848a8a86868a612ecf565b612baf848a8a8a8a8a612ed7565b505050505050505050565b600073ffffffffffffffffffffffffffffffffffffffff168373ffffffffffffffffffffffffffffffffffffffff161415612c2a576040517f08c379a0000000000000000000000000000000000000000000000000000000008152600401612c2190613fe2565b60405180910390fd5b6000612c346118db565b90506000612c4184612e01565b90506000612c4e84612e01565b9050612c6e83876000858560405180602001604052806000815250612ec7565b600080600087815260200190815260200160002060008873ffffffffffffffffffffffffffffffffffffffff1673ffffffffffffffffffffffffffffffffffffffff16815260200190815260200160002054905084811015612d05576040517f08c379a0000000000000000000000000000000000000000000000000000000008152600401612cfc90613f22565b60405180910390fd5b84810360008088815260200190815260200160002060008973ffffffffffffffffffffffffffffffffffffffff1673ffffffffffffffffffffffffffffffffffffffff16815260200190815260200160002081905550600073ffffffffffffffffffffffffffffffffffffffff168773ffffffffffffffffffffffffffffffffffffffff168573ffffffffffffffffffffffffffffffffffffffff167fc3d58168c5ae7397731d063d5bbf3d657854427343f4c083240f7aacaa2d0f628989604051612dd2929190614167565b60405180910390a4612df884886000868660405180602001604052806000815250612ecf565b50505050505050565b60606000600167ffffffffffffffff811115612e46577f4e487b7100000000000000000000000000000000000000000000000000000000600052604160045260246000fd5b604051908082528060200260200182016040528015612e745781602001602082028036833780820191505090505b5090508281600081518110612eb2577f4e487b7100000000000000000000000000000000000000000000000000000000600052603260045260246000fd5b60200260200101818152505080915050919050565b505050505050565b505050505050565b612ef68473ffffffffffffffffffffffffffffffffffffffff166132a5565b156130b6578373ffffffffffffffffffffffffffffffffffffffff1663f23a6e6187878686866040518663ffffffff1660e01b8152600401612f3c959493929190613db2565b602060405180830381600087803b158015612f5657600080fd5b505af1925050508015612f8757506040513d601f19601f82011682018060405250810190612f8491906138b2565b60015b61302d57612f93614691565b806308c379a01415612ff05750612fa8614b9e565b80612fb35750612ff2565b806040517f08c379a0000000000000000000000000000000000000000000000000000000008152600401612fe79190613e80565b60405180910390fd5b505b6040517f08c379a000000000000000000000000000000000000000000000000000000000815260040161302490613ea2565b60405180910390fd5b63f23a6e6160e01b7bffffffffffffffffffffffffffffffffffffffffffffffffffffffff1916817bffffffffffffffffffffffffffffffffffffffffffffffffffffffff1916146130b4576040517f08c379a00000000000000000000000000000000000000000000000000000000081526004016130ab90613ec2565b60405180910390fd5b505b505050505050565b6130dd8473ffffffffffffffffffffffffffffffffffffffff166132a5565b1561329d578373ffffffffffffffffffffffffffffffffffffffff1663bc197c8187878686866040518663ffffffff1660e01b8152600401613123959493929190613d4a565b602060405180830381600087803b15801561313d57600080fd5b505af192505050801561316e57506040513d601f19601f8201168201806040525081019061316b91906138b2565b60015b6132145761317a614691565b806308c379a014156131d7575061318f614b9e565b8061319a57506131d9565b806040517f08c379a00000000000000000000000000000000000000000000000000000000081526004016131ce9190613e80565b60405180910390fd5b505b6040517f08c379a000000000000000000000000000000000000000000000000000000000815260040161320b90613ea2565b60405180910390fd5b63bc197c8160e01b7bffffffffffffffffffffffffffffffffffffffffffffffffffffffff1916817bffffffffffffffffffffffffffffffffffffffffffffffffffffffff19161461329b576040517f08c379a000000000000000000000000000000000000000000000000000000000815260040161329290613ec2565b60405180910390fd5b505b505050505050565b6000808273ffffffffffffffffffffffffffffffffffffffff163b119050919050565b60006132db6132d6846141f9565b6141d4565b905080838252602082019050828560208602820111156132fa57600080fd5b60005b8581101561332a578161331088826133de565b8452602084019350602083019250506001810190506132fd565b5050509392505050565b600061334761334284614225565b6141d4565b9050808382526020820190508285602086028201111561336657600080fd5b60005b85811015613396578161337c88826134da565b845260208401935060208301925050600181019050613369565b5050509392505050565b60006133b36133ae84614251565b6141d4565b9050828152602081018484840111156133cb57600080fd5b6133d68482856144ba565b509392505050565b6000813590506133ed81614c48565b92915050565b600082601f83011261340457600080fd5b81356134148482602086016132c8565b91505092915050565b600082601f83011261342e57600080fd5b813561343e848260208601613334565b91505092915050565b60008135905061345681614c5f565b92915050565b60008135905061346b81614c76565b92915050565b60008135905061348081614c8d565b92915050565b60008151905061349581614c8d565b92915050565b600082601f8301126134ac57600080fd5b81356134bc8482602086016133a0565b91505092915050565b6000813590506134d481614ca4565b92915050565b6000813590506134e981614cb4565b92915050565b6000813590506134fe81614ccb565b92915050565b60006020828403121561351657600080fd5b6000613524848285016133de565b91505092915050565b6000806040838503121561354057600080fd5b600061354e858286016133de565b925050602061355f858286016133de565b9150509250929050565b600080600080600060a0868803121561358157600080fd5b600061358f888289016133de565b95505060206135a0888289016133de565b945050604086013567ffffffffffffffff8111156135bd57600080fd5b6135c98882890161341d565b935050606086013567ffffffffffffffff8111156135e657600080fd5b6135f28882890161341d565b925050608086013567ffffffffffffffff81111561360f57600080fd5b61361b8882890161349b565b9150509295509295909350565b6000806000806080858703121561363e57600080fd5b600061364c878288016133de565b945050602061365d878288016133de565b935050604061366e878288016134da565b925050606061367f878288016134da565b91505092959194509250565b600080600080600060a086880312156136a357600080fd5b60006136b1888289016133de565b95505060206136c2888289016133de565b94505060406136d3888289016134da565b93505060606136e4888289016134da565b925050608086013567ffffffffffffffff81111561370157600080fd5b61370d8882890161349b565b9150509295509295909350565b6000806040838503121561372d57600080fd5b600061373b858286016133de565b925050602061374c85828601613447565b9150509250929050565b6000806040838503121561376957600080fd5b6000613777858286016133de565b9250506020613788858286016134da565b9150509250929050565b6000806000606084860312156137a757600080fd5b60006137b5868287016133de565b93505060206137c6868287016134da565b92505060406137d7868287016134da565b9150509250925092565b600080604083850312156137f457600080fd5b600083013567ffffffffffffffff81111561380e57600080fd5b61381a858286016133f3565b925050602083013567ffffffffffffffff81111561383757600080fd5b6138438582860161341d565b9150509250929050565b6000806040838503121561386057600080fd5b600061386e8582860161345c565b925050602061387f858286016133de565b9150509250929050565b60006020828403121561389b57600080fd5b60006138a984828501613471565b91505092915050565b6000602082840312156138c457600080fd5b60006138d284828501613486565b91505092915050565b6000602082840312156138ed57600080fd5b60006138fb848285016134c5565b91505092915050565b60006020828403121561391657600080fd5b6000613924848285016134da565b91505092915050565b60008060006060848603121561394257600080fd5b6000613950868287016134da565b9350506020613961868287016134ef565b9250506040613972868287016134ef565b9150509250925092565b60006139888383613cf3565b60208301905092915050565b61399d816143f5565b82525050565b60006139ae82614292565b6139b881856142c0565b93506139c383614282565b8060005b838110156139f45781516139db888261397c565b97506139e6836142b3565b9250506001810190506139c7565b5085935050505092915050565b613a0a81614407565b82525050565b613a1981614413565b82525050565b6000613a2a8261429d565b613a3481856142d1565b9350613a448185602086016144c9565b613a4d816146b3565b840191505092915050565b613a6181614496565b82525050565b6000613a72826142a8565b613a7c81856142e2565b9350613a8c8185602086016144c9565b613a95816146b3565b840191505092915050565b6000613aad6034836142e2565b9150613ab8826146d1565b604082019050919050565b6000613ad06028836142e2565b9150613adb82614720565b604082019050919050565b6000613af3602b836142e2565b9150613afe8261476f565b604082019050919050565b6000613b166026836142e2565b9150613b21826147be565b604082019050919050565b6000613b396024836142e2565b9150613b448261480d565b604082019050919050565b6000613b5c6029836142e2565b9150613b678261485c565b604082019050919050565b6000613b7f6019836142e2565b9150613b8a826148ab565b602082019050919050565b6000613ba26016836142e2565b9150613bad826148d4565b602082019050919050565b6000613bc56025836142e2565b9150613bd0826148fd565b604082019050919050565b6000613be86032836142e2565b9150613bf38261494c565b604082019050919050565b6000613c0b6023836142e2565b9150613c168261499b565b604082019050919050565b6000613c2e602a836142e2565b9150613c39826149ea565b604082019050919050565b6000613c516020836142e2565b9150613c5c82614a39565b602082019050919050565b6000613c746029836142e2565b9150613c7f82614a62565b604082019050919050565b6000613c976029836142e2565b9150613ca282614ab1565b604082019050919050565b6000613cba6028836142e2565b9150613cc582614b00565b604082019050919050565b6000613cdd6021836142e2565b9150613ce882614b4f565b604082019050919050565b613cfc8161447c565b82525050565b613d0b8161447c565b82525050565b613d1a816144a8565b82525050565b613d2981614486565b82525050565b6000602082019050613d446000830184613994565b92915050565b600060a082019050613d5f6000830188613994565b613d6c6020830187613994565b8181036040830152613d7e81866139a3565b90508181036060830152613d9281856139a3565b90508181036080830152613da68184613a1f565b90509695505050505050565b600060a082019050613dc76000830188613994565b613dd46020830187613994565b613de16040830186613d02565b613dee6060830185613d02565b8181036080830152613e008184613a1f565b90509695505050505050565b60006020820190508181036000830152613e2681846139a3565b905092915050565b60006040820190508181036000830152613e4881856139a3565b90508181036020830152613e5c81846139a3565b90509392505050565b6000602082019050613e7a6000830184613a01565b92915050565b60006020820190508181036000830152613e9a8184613a67565b905092915050565b60006020820190508181036000830152613ebb81613aa0565b9050919050565b60006020820190508181036000830152613edb81613ac3565b9050919050565b60006020820190508181036000830152613efb81613ae6565b9050919050565b60006020820190508181036000830152613f1b81613b09565b9050919050565b60006020820190508181036000830152613f3b81613b2c565b9050919050565b60006020820190508181036000830152613f5b81613b4f565b9050919050565b60006020820190508181036000830152613f7b81613b72565b9050919050565b60006020820190508181036000830152613f9b81613b95565b9050919050565b60006020820190508181036000830152613fbb81613bb8565b9050919050565b60006020820190508181036000830152613fdb81613bdb565b9050919050565b60006020820190508181036000830152613ffb81613bfe565b9050919050565b6000602082019050818103600083015261401b81613c21565b9050919050565b6000602082019050818103600083015261403b81613c44565b9050919050565b6000602082019050818103600083015261405b81613c67565b9050919050565b6000602082019050818103600083015261407b81613c8a565b9050919050565b6000602082019050818103600083015261409b81613cad565b9050919050565b600060208201905081810360008301526140bb81613cd0565b9050919050565b60006020820190506140d76000830184613d02565b92915050565b600060c0820190506140f26000830189613d02565b6140ff6020830188613a10565b61410c6040830187613994565b6141196060830186613a58565b6141266080830185613d20565b61413360a0830184613d20565b979650505050505050565b60006040820190506141536000830185613d02565b6141606020830184613a58565b9392505050565b600060408201905061417c6000830185613d02565b6141896020830184613d02565b9392505050565b60006020820190506141a56000830184613d20565b92915050565b60006040820190506141c06000830185613d11565b6141cd6020830184613a10565b9392505050565b60006141de6141ef565b90506141ea828261452e565b919050565b6000604051905090565b600067ffffffffffffffff82111561421457614213614662565b5b602082029050602081019050919050565b600067ffffffffffffffff8211156142405761423f614662565b5b602082029050602081019050919050565b600067ffffffffffffffff82111561426c5761426b614662565b5b614275826146b3565b9050602081019050919050565b6000819050602082019050919050565b600081519050919050565b600081519050919050565b600081519050919050565b6000602082019050919050565b600082825260208201905092915050565b600082825260208201905092915050565b600082825260208201905092915050565b60006142fe8261447c565b91506143098361447c565b9250827fffffffffffffffffffffffffffffffffffffffffffffffffffffffffffffffff0382111561433e5761433d6145d5565b5b828201905092915050565b600061435482614486565b915061435f83614486565b92508263ffffffff03821115614378576143776145d5565b5b828201905092915050565b600061438e82614486565b915061439983614486565b92508163ffffffff04831182151516156143b6576143b56145d5565b5b828202905092915050565b60006143cc8261447c565b91506143d78361447c565b9250828210156143ea576143e96145d5565b5b828203905092915050565b60006144008261445c565b9050919050565b60008115159050919050565b6000819050919050565b60007fffffffff0000000000000000000000000000000000000000000000000000000082169050919050565b600081905061445782614c34565b919050565b600073ffffffffffffffffffffffffffffffffffffffff82169050919050565b6000819050919050565b600063ffffffff82169050919050565b60006144a182614449565b9050919050565b60006144b382614486565b9050919050565b82818337600083830152505050565b60005b838110156144e75780820151818401526020810190506144cc565b838111156144f6576000848401525b50505050565b6000600282049050600182168061451457607f821691505b6020821081141561452857614527614633565b5b50919050565b614537826146b3565b810181811067ffffffffffffffff8211171561455657614555614662565b5b80604052505050565b600061456a8261447c565b91507fffffffffffffffffffffffffffffffffffffffffffffffffffffffffffffffff82141561459d5761459c6145d5565b5b600182019050919050565b60006145b382614486565b915063ffffffff8214156145ca576145c96145d5565b5b600182019050919050565b7f4e487b7100000000000000000000000000000000000000000000000000000000600052601160045260246000fd5b7f4e487b7100000000000000000000000000000000000000000000000000000000600052602160045260246000fd5b7f4e487b7100000000000000000000000000000000000000000000000000000000600052602260045260246000fd5b7f4e487b7100000000000000000000000000000000000000000000000000000000600052604160045260246000fd5b600060033d11156146b05760046000803e6146ad6000516146c4565b90505b90565b6000601f19601f8301169050919050565b60008160e01c9050919050565b7f455243313135353a207472616e7366657220746f206e6f6e204552433131353560008201527f526563656976657220696d706c656d656e746572000000000000000000000000602082015250565b7f455243313135353a204552433131353552656365697665722072656a6563746560008201527f6420746f6b656e73000000000000000000000000000000000000000000000000602082015250565b7f455243313135353a2062616c616e636520717565727920666f7220746865207a60008201527f65726f2061646472657373000000000000000000000000000000000000000000602082015250565b7f4f776e61626c653a206e6577206f776e657220697320746865207a65726f206160008201527f6464726573730000000000000000000000000000000000000000000000000000602082015250565b7f455243313135353a206275726e20616d6f756e7420657863656564732062616c60008201527f616e636500000000000000000000000000000000000000000000000000000000602082015250565b7f455243313135353a2063616c6c6572206973206e6f74206f776e6572206e6f7260008201527f20617070726f7665640000000000000000000000000000000000000000000000602082015250565b7f4174686c6574652077616c6c6574206e6f7420756e6971756500000000000000600082015250565b7f5a65726f206174686c6574657320656e726f6c6c656400000000000000000000600082015250565b7f455243313135353a207472616e7366657220746f20746865207a65726f20616460008201527f6472657373000000000000000000000000000000000000000000000000000000602082015250565b7f455243313135353a207472616e736665722063616c6c6572206973206e6f742060008201527f6f776e6572206e6f7220617070726f7665640000000000000000000000000000602082015250565b7f455243313135353a206275726e2066726f6d20746865207a65726f206164647260008201527f6573730000000000000000000000000000000000000000000000000000000000602082015250565b7f455243313135353a20696e73756666696369656e742062616c616e636520666f60008201527f72207472616e7366657200000000000000000000000000000000000000000000602082015250565b7f4f776e61626c653a2063616c6c6572206973206e6f7420746865206f776e6572600082015250565b7f455243313135353a2073657474696e6720617070726f76616c2073746174757360008201527f20666f722073656c660000000000000000000000000000000000000000000000602082015250565b7f455243313135353a206163636f756e747320616e6420696473206c656e67746860008201527f206d69736d617463680000000000000000000000000000000000000000000000602082015250565b7f455243313135353a2069647320616e6420616d6f756e7473206c656e6774682060008201527f6d69736d61746368000000000000000000000000000000000000000000000000602082015250565b7f455243313135353a206d696e7420746f20746865207a65726f2061646472657360008201527f7300000000000000000000000000000000000000000000000000000000000000602082015250565b600060443d1015614bae57614c31565b614bb66141ef565b60043d036004823e80513d602482011167ffffffffffffffff82111715614bde575050614c31565b808201805167ffffffffffffffff811115614bfc5750505050614c31565b80602083010160043d038501811115614c19575050505050614c31565b614c288260200185018661452e565b82955050505050505b90565b60048110614c4557614c44614604565b5b50565b614c51816143f5565b8114614c5c57600080fd5b50565b614c6881614407565b8114614c7357600080fd5b50565b614c7f81614413565b8114614c8a57600080fd5b50565b614c968161441d565b8114614ca157600080fd5b50565b60048110614cb157600080fd5b50565b614cbd8161447c565b8114614cc857600080fd5b50565b614cd481614486565b8114614cdf57600080fd5b5056fea2646970667358221220609570707d5e7b988fe1e21999b29fed8416c6258576093404a6d236fe9fba9064736f6c63430008020033697066733a2f2f62616679626569666870323261786b6e326732327674717767636778326a6b643373737036706f7862646f797a6862366b746a74713261677a78752f7b69647d2e6a736f6e",
  "linkReferences": {},
  "deployedLinkReferences": {}
}